{
  "_format": "hh-sol-artifact-1",
  "contractName": "CapitalRepaymentProperty",
  "sourceName": "contracts/CapitalRepaymentProperty.sol",
  "abi": [
    {
      "inputs": [
        {
          "internalType": "string",
          "name": "name",
          "type": "string"
        },
        {
          "internalType": "string",
          "name": "symbol",
          "type": "string"
        },
        {
          "internalType": "uint256",
          "name": "_totalSupply",
          "type": "uint256"
        },
        {
          "internalType": "uint256",
          "name": "_pricePerToken",
          "type": "uint256"
        },
        {
          "internalType": "uint256",
          "name": "_collateralizedValue",
          "type": "uint256"
        },
        {
          "internalType": "uint256",
          "name": "_durationInMonths",
          "type": "uint256"
        },
        {
          "internalType": "uint256",
          "name": "_interestRate",
          "type": "uint256"
        },
        {
          "internalType": "address",
          "name": "paymentTokenAddress",
          "type": "address"
        }
      ],
      "stateMutability": "nonpayable",
      "type": "constructor"
    },
    {
      "anonymous": false,
      "inputs": [
        {
          "indexed": true,
          "internalType": "address",
          "name": "owner",
          "type": "address"
        },
        {
          "indexed": true,
          "internalType": "address",
          "name": "approved",
          "type": "address"
        },
        {
          "indexed": true,
          "internalType": "uint256",
          "name": "tokenId",
          "type": "uint256"
        }
      ],
      "name": "Approval",
      "type": "event"
    },
    {
      "anonymous": false,
      "inputs": [
        {
          "indexed": true,
          "internalType": "address",
          "name": "owner",
          "type": "address"
        },
        {
          "indexed": true,
          "internalType": "address",
          "name": "operator",
          "type": "address"
        },
        {
          "indexed": false,
          "internalType": "bool",
          "name": "approved",
          "type": "bool"
        }
      ],
      "name": "ApprovalForAll",
      "type": "event"
    },
    {
      "anonymous": false,
      "inputs": [
        {
          "indexed": true,
          "internalType": "address",
          "name": "previousOwner",
          "type": "address"
        },
        {
          "indexed": true,
          "internalType": "address",
          "name": "newOwner",
          "type": "address"
        }
      ],
      "name": "OwnershipTransferred",
      "type": "event"
    },
    {
      "anonymous": false,
      "inputs": [
        {
          "indexed": true,
          "internalType": "address",
          "name": "from",
          "type": "address"
        },
        {
          "indexed": true,
          "internalType": "address",
          "name": "to",
          "type": "address"
        },
        {
          "indexed": true,
          "internalType": "uint256",
          "name": "tokenId",
          "type": "uint256"
        }
      ],
      "name": "Transfer",
      "type": "event"
    },
    {
      "inputs": [
        {
          "internalType": "address",
          "name": "to",
          "type": "address"
        },
        {
          "internalType": "uint256",
          "name": "tokenId",
          "type": "uint256"
        }
      ],
      "name": "approve",
      "outputs": [],
      "stateMutability": "nonpayable",
      "type": "function"
    },
    {
      "inputs": [
        {
          "internalType": "address",
          "name": "owner",
          "type": "address"
        }
      ],
      "name": "balanceOf",
      "outputs": [
        {
          "internalType": "uint256",
          "name": "",
          "type": "uint256"
        }
      ],
      "stateMutability": "view",
      "type": "function"
    },
    {
      "inputs": [],
      "name": "collateralizedValue",
      "outputs": [
        {
          "internalType": "uint256",
          "name": "",
          "type": "uint256"
        }
      ],
      "stateMutability": "view",
      "type": "function"
    },
    {
      "inputs": [],
      "name": "currentToken",
      "outputs": [
        {
          "internalType": "uint256",
          "name": "",
          "type": "uint256"
        }
      ],
      "stateMutability": "view",
      "type": "function"
    },
    {
      "inputs": [],
      "name": "durationInMonths",
      "outputs": [
        {
          "internalType": "uint256",
          "name": "",
          "type": "uint256"
        }
      ],
      "stateMutability": "view",
      "type": "function"
    },
    {
      "inputs": [
        {
          "internalType": "uint256",
          "name": "tokenId",
          "type": "uint256"
        }
      ],
      "name": "getApproved",
      "outputs": [
        {
          "internalType": "address",
          "name": "",
          "type": "address"
        }
      ],
      "stateMutability": "view",
      "type": "function"
    },
    {
      "inputs": [],
      "name": "interestRate",
      "outputs": [
        {
          "internalType": "uint256",
          "name": "",
          "type": "uint256"
        }
      ],
      "stateMutability": "view",
      "type": "function"
    },
    {
      "inputs": [],
      "name": "isActive",
      "outputs": [
        {
          "internalType": "bool",
          "name": "",
          "type": "bool"
        }
      ],
      "stateMutability": "view",
      "type": "function"
    },
    {
      "inputs": [
        {
          "internalType": "address",
          "name": "owner",
          "type": "address"
        },
        {
          "internalType": "address",
          "name": "operator",
          "type": "address"
        }
      ],
      "name": "isApprovedForAll",
      "outputs": [
        {
          "internalType": "bool",
          "name": "",
          "type": "bool"
        }
      ],
      "stateMutability": "view",
      "type": "function"
    },
    {
      "inputs": [
        {
          "internalType": "uint256",
          "name": "",
          "type": "uint256"
        }
      ],
      "name": "lastClaimed",
      "outputs": [
        {
          "internalType": "uint256",
          "name": "",
          "type": "uint256"
        }
      ],
      "stateMutability": "view",
      "type": "function"
    },
    {
      "inputs": [
        {
          "internalType": "uint256",
          "name": "quantity",
          "type": "uint256"
        }
      ],
      "name": "mint",
      "outputs": [],
      "stateMutability": "nonpayable",
      "type": "function"
    },
    {
      "inputs": [],
      "name": "name",
      "outputs": [
        {
          "internalType": "string",
          "name": "",
          "type": "string"
        }
      ],
      "stateMutability": "view",
      "type": "function"
    },
    {
      "inputs": [
        {
          "internalType": "uint256",
          "name": "",
          "type": "uint256"
        }
      ],
      "name": "numberOfClaims",
      "outputs": [
        {
          "internalType": "uint256",
          "name": "",
          "type": "uint256"
        }
      ],
      "stateMutability": "view",
      "type": "function"
    },
    {
      "inputs": [],
      "name": "owner",
      "outputs": [
        {
          "internalType": "address",
          "name": "",
          "type": "address"
        }
      ],
      "stateMutability": "view",
      "type": "function"
    },
    {
      "inputs": [
        {
          "internalType": "uint256",
          "name": "tokenId",
          "type": "uint256"
        }
      ],
      "name": "ownerOf",
      "outputs": [
        {
          "internalType": "address",
          "name": "",
          "type": "address"
        }
      ],
      "stateMutability": "view",
      "type": "function"
    },
    {
      "inputs": [],
      "name": "paymentToken",
      "outputs": [
        {
          "internalType": "contract IERC20",
          "name": "",
          "type": "address"
        }
      ],
      "stateMutability": "view",
      "type": "function"
    },
    {
      "inputs": [],
      "name": "pricePerToken",
      "outputs": [
        {
          "internalType": "uint256",
          "name": "",
          "type": "uint256"
        }
      ],
      "stateMutability": "view",
      "type": "function"
    },
    {
      "inputs": [],
      "name": "renounceOwnership",
      "outputs": [],
      "stateMutability": "nonpayable",
      "type": "function"
    },
    {
      "inputs": [
        {
          "internalType": "address",
          "name": "from",
          "type": "address"
        },
        {
          "internalType": "address",
          "name": "to",
          "type": "address"
        },
        {
          "internalType": "uint256",
          "name": "tokenId",
          "type": "uint256"
        }
      ],
      "name": "safeTransferFrom",
      "outputs": [],
      "stateMutability": "nonpayable",
      "type": "function"
    },
    {
      "inputs": [
        {
          "internalType": "address",
          "name": "from",
          "type": "address"
        },
        {
          "internalType": "address",
          "name": "to",
          "type": "address"
        },
        {
          "internalType": "uint256",
          "name": "tokenId",
          "type": "uint256"
        },
        {
          "internalType": "bytes",
          "name": "data",
          "type": "bytes"
        }
      ],
      "name": "safeTransferFrom",
      "outputs": [],
      "stateMutability": "nonpayable",
      "type": "function"
    },
    {
      "inputs": [],
      "name": "setActive",
      "outputs": [],
      "stateMutability": "nonpayable",
      "type": "function"
    },
    {
      "inputs": [
        {
          "internalType": "address",
          "name": "operator",
          "type": "address"
        },
        {
          "internalType": "bool",
          "name": "approved",
          "type": "bool"
        }
      ],
      "name": "setApprovalForAll",
      "outputs": [],
      "stateMutability": "nonpayable",
      "type": "function"
    },
    {
      "inputs": [],
      "name": "setInactive",
      "outputs": [],
      "stateMutability": "nonpayable",
      "type": "function"
    },
    {
      "inputs": [
        {
          "internalType": "uint256",
          "name": "tokenId",
          "type": "uint256"
        },
        {
          "internalType": "uint256",
          "name": "timestamp",
          "type": "uint256"
        }
      ],
      "name": "setLastClaimed",
      "outputs": [],
      "stateMutability": "nonpayable",
      "type": "function"
    },
    {
      "inputs": [
        {
          "internalType": "uint256",
          "name": "tokenId",
          "type": "uint256"
        },
        {
          "internalType": "uint256",
          "name": "_numberOfClaims",
          "type": "uint256"
        }
      ],
      "name": "setNumberOfClaims",
      "outputs": [],
      "stateMutability": "nonpayable",
      "type": "function"
    },
    {
      "inputs": [],
      "name": "startTime",
      "outputs": [
        {
          "internalType": "uint256",
          "name": "",
          "type": "uint256"
        }
      ],
      "stateMutability": "view",
      "type": "function"
    },
    {
      "inputs": [
        {
          "internalType": "bytes4",
          "name": "interfaceId",
          "type": "bytes4"
        }
      ],
      "name": "supportsInterface",
      "outputs": [
        {
          "internalType": "bool",
          "name": "",
          "type": "bool"
        }
      ],
      "stateMutability": "view",
      "type": "function"
    },
    {
      "inputs": [],
      "name": "symbol",
      "outputs": [
        {
          "internalType": "string",
          "name": "",
          "type": "string"
        }
      ],
      "stateMutability": "view",
      "type": "function"
    },
    {
      "inputs": [
        {
          "internalType": "uint256",
          "name": "tokenId",
          "type": "uint256"
        }
      ],
      "name": "tokenURI",
      "outputs": [
        {
          "internalType": "string",
          "name": "",
          "type": "string"
        }
      ],
      "stateMutability": "view",
      "type": "function"
    },
    {
      "inputs": [],
      "name": "totalSupply",
      "outputs": [
        {
          "internalType": "uint256",
          "name": "",
          "type": "uint256"
        }
      ],
      "stateMutability": "view",
      "type": "function"
    },
    {
      "inputs": [
        {
          "internalType": "address",
          "name": "from",
          "type": "address"
        },
        {
          "internalType": "address",
          "name": "to",
          "type": "address"
        },
        {
          "internalType": "uint256",
          "name": "tokenId",
          "type": "uint256"
        }
      ],
      "name": "transferFrom",
      "outputs": [],
      "stateMutability": "nonpayable",
      "type": "function"
    },
    {
      "inputs": [
        {
          "internalType": "address",
          "name": "newOwner",
          "type": "address"
        }
      ],
      "name": "transferOwnership",
      "outputs": [],
      "stateMutability": "nonpayable",
      "type": "function"
    },
    {
      "inputs": [
        {
          "internalType": "address",
          "name": "to",
          "type": "address"
        }
      ],
      "name": "withdraw",
      "outputs": [],
      "stateMutability": "nonpayable",
      "type": "function"
    }
  ],
  "bytecode": "0x6101206040523480156200001257600080fd5b5060405162001fd138038062001fd18339810160408190526200003591620001cd565b8787600062000045838262000317565b50600162000054828262000317565b505050620000716200006b620000b260201b60201c565b620000b6565b60809590955260a09390935260c09190915260e05261010052600880546001600160a01b0319166001600160a01b0390921691909117905550620003e39050565b3390565b600680546001600160a01b038381166001600160a01b0319831681179093556040519116919082907f8be0079c531659141344cd1fd0a4f28419497f9722a3daafe3b4186f6b6457e090600090a35050565b634e487b7160e01b600052604160045260246000fd5b600082601f8301126200013057600080fd5b81516001600160401b03808211156200014d576200014d62000108565b604051601f8301601f19908116603f0116810190828211818310171562000178576200017862000108565b816040528381526020925086838588010111156200019557600080fd5b600091505b83821015620001b957858201830151818301840152908201906200019a565b600093810190920192909252949350505050565b600080600080600080600080610100898b031215620001eb57600080fd5b88516001600160401b03808211156200020357600080fd5b620002118c838d016200011e565b995060208b01519150808211156200022857600080fd5b50620002378b828c016200011e565b97505060408901519550606089015194506080890151935060a0890151925060c0890151915060e089015160018060a01b03811681146200027757600080fd5b809150509295985092959890939650565b600181811c908216806200029d57607f821691505b602082108103620002be57634e487b7160e01b600052602260045260246000fd5b50919050565b601f8211156200031257600081815260208120601f850160051c81016020861015620002ed5750805b601f850160051c820191505b818110156200030e57828155600101620002f9565b5050505b505050565b81516001600160401b0381111562000333576200033362000108565b6200034b8162000344845462000288565b84620002c4565b602080601f8311600181146200038357600084156200036a5750858301515b600019600386901b1c1916600185901b1785556200030e565b600085815260208120601f198616915b82811015620003b45788860151825594840194600190910190840162000393565b5085821015620003d35787850151600019600388901b60f8161c191681555b5050505050600190811b01905550565b60805160a05160c05160e05161010051611b946200043d60003960006103b601526000610329015260006101d201526000818161038f0152610a2a01526000818161024f015281816109d20152610b3e0152611b946000f3fe608060405234801561001057600080fd5b506004361061018b5760003560e01c806301ffc9a71461019057806306fdde03146101b8578063077433b6146101cd578063081812fc14610202578063095ea7b314610222578063162a9bb61461023757806318160ddd1461024a57806322f3e2d41461027157806323b872dd146102855780633013ce291461029857806342842e0e146102ab578063509bc786146102be57806351cff8d9146102de57806352049ace146102f15780636352211e1461031157806367097a4b1461032457806369cc97011461034b57806370a082311461035e578063715018a614610371578063760a8c2a1461037957806378e97925146103815780637b1b1de61461038a5780637c3a00fd146103b1578063836c081d146103d85780638da5cb5b146103e157806395d89b41146103e9578063a0712d68146103f1578063a22cb46514610404578063b88d4fde14610417578063c87b56dd1461042a578063e985e9c51461043d578063f1b9ee2414610450578063f2fde38b14610458575b600080fd5b6101a361019e366004611575565b61046b565b60405190151581526020015b60405180910390f35b6101c06104bd565b6040516101af91906115e2565b6101f47f000000000000000000000000000000000000000000000000000000000000000081565b6040519081526020016101af565b6102156102103660046115f5565b61054f565b6040516101af919061160e565b61023561023036600461163e565b610576565b005b610235610245366004611668565b610690565b6101f47f000000000000000000000000000000000000000000000000000000000000000081565b6008546101a390600160a01b900460ff1681565b61023561029336600461168a565b6106aa565b600854610215906001600160a01b031681565b6102356102b936600461168a565b6106db565b6101f46102cc3660046115f5565b600b6020526000908152604090205481565b6102356102ec3660046116c6565b6106f6565b6101f46102ff3660046115f5565b600a6020526000908152604090205481565b61021561031f3660046115f5565b610850565b6101f47f000000000000000000000000000000000000000000000000000000000000000081565b610235610359366004611668565b610884565b6101f461036c3660046116c6565b61089e565b610235610924565b610235610938565b6101f460095481565b6101f47f000000000000000000000000000000000000000000000000000000000000000081565b6101f47f000000000000000000000000000000000000000000000000000000000000000081565b6101f460075481565b6102156109b2565b6101c06109c1565b6102356103ff3660046115f5565b6109d0565b6102356104123660046116ef565b610bb5565b61023561042536600461173c565b610bc0565b6101c06104383660046115f5565b610bf8565b6101a361044b366004611817565b610c6c565b610235610c9a565b6102356104663660046116c6565b610d0b565b60006001600160e01b031982166380ac58cd60e01b148061049c57506001600160e01b03198216635b5e139f60e01b145b806104b757506301ffc9a760e01b6001600160e01b03198316145b92915050565b6060600080546104cc9061184a565b80601f01602080910402602001604051908101604052809291908181526020018280546104f89061184a565b80156105455780601f1061051a57610100808354040283529160200191610545565b820191906000526020600020905b81548152906001019060200180831161052857829003601f168201915b5050505050905090565b600061055a82610d84565b506000908152600460205260409020546001600160a01b031690565b600061058182610850565b9050806001600160a01b0316836001600160a01b0316036105f35760405162461bcd60e51b815260206004820152602160248201527f4552433732313a20617070726f76616c20746f2063757272656e74206f776e656044820152603960f91b60648201526084015b60405180910390fd5b336001600160a01b038216148061060f575061060f8133610c6c565b6106815760405162461bcd60e51b815260206004820152603d60248201527f4552433732313a20617070726f76652063616c6c6572206973206e6f7420746f60448201527f6b656e206f776e6572206f7220617070726f76656420666f7220616c6c00000060648201526084016105ea565b61068b8383610da9565b505050565b610698610e17565b6000918252600a602052604090912055565b6106b43382610e76565b6106d05760405162461bcd60e51b81526004016105ea90611884565b61068b838383610ed5565b61068b83838360405180602001604052806000815250610bc0565b6106fe610e17565b6008546040516370a0823160e01b81526000916001600160a01b0316906370a082319061072f90309060040161160e565b602060405180830381865afa15801561074c573d6000803e3d6000fd5b505050506040513d601f19601f8201168201806040525081019061077091906118d1565b9050600081116107d95760405162461bcd60e51b815260206004820152602e60248201527f4361706974616c52657061796d656e7450726f70657274793a206e6f2066756e60448201526d647320746f20776974686472617760901b60648201526084016105ea565b60085460405163a9059cbb60e01b81526001600160a01b038481166004830152602482018490529091169063a9059cbb906044016020604051808303816000875af115801561082c573d6000803e3d6000fd5b505050506040513d601f19601f8201168201806040525081019061068b91906118ea565b60008061085c83611027565b90506001600160a01b0381166104b75760405162461bcd60e51b81526004016105ea90611907565b61088c610e17565b6000918252600b602052604090912055565b60006001600160a01b0382166109085760405162461bcd60e51b815260206004820152602960248201527f4552433732313a2061646472657373207a65726f206973206e6f7420612076616044820152683634b21037bbb732b960b91b60648201526084016105ea565b506001600160a01b031660009081526003602052604090205490565b61092c610e17565b6109366000611042565b565b610940610e17565b600854600160a01b900460ff16156109995760405162461bcd60e51b81526020600482015260286024820152600080516020611b1f833981519152604482015267792061637469766560c01b60648201526084016105ea565b6008805460ff60a01b1916600160a01b17905542600955565b6006546001600160a01b031690565b6060600180546104cc9061184a565b7f000000000000000000000000000000000000000000000000000000000000000060075410610a115760405162461bcd60e51b81526004016105ea90611939565b6008546001600160a01b03166323b872dd3330610a4e857f0000000000000000000000000000000000000000000000000000000000000000611998565b610a5b90620f4240611998565b6040516001600160e01b031960e086901b1681526001600160a01b03938416600482015292909116602483015260448201526064016020604051808303816000875af1158015610aaf573d6000803e3d6000fd5b505050506040513d601f19601f82011682018060405250810190610ad391906118ea565b610b315760405162461bcd60e51b815260206004820152602960248201527f4361706974616c52657061796d656e7450726f70657274793a207075726368616044820152681cd94819985a5b195960ba1b60648201526084016105ea565b60005b81811015610bb1577f000000000000000000000000000000000000000000000000000000000000000060075410610b7d5760405162461bcd60e51b81526004016105ea90611939565b610b8933600754611094565b60078054906000610b99836119af565b91905055508080610ba9906119af565b915050610b34565b5050565b610bb13383836110ae565b610bca3383610e76565b610be65760405162461bcd60e51b81526004016105ea90611884565b610bf284848484611178565b50505050565b6060610c0382610d84565b6000610c1a60408051602081019091526000815290565b90506000815111610c3a5760405180602001604052806000815250610c65565b80610c44846111ab565b604051602001610c559291906119c8565b6040516020818303038152906040525b9392505050565b6001600160a01b03918216600090815260056020908152604080832093909416825291909152205460ff1690565b610ca2610e17565b600854600160a01b900460ff16610cfc5760405162461bcd60e51b815260206004820152602a6024820152600080516020611b1f8339815191526044820152697920696e61637469766560b01b60648201526084016105ea565b6008805460ff60a01b19169055565b610d13610e17565b6001600160a01b038116610d785760405162461bcd60e51b815260206004820152602660248201527f4f776e61626c653a206e6577206f776e657220697320746865207a65726f206160448201526564647265737360d01b60648201526084016105ea565b610d8181611042565b50565b610d8d8161123d565b610d815760405162461bcd60e51b81526004016105ea90611907565b600081815260046020526040902080546001600160a01b0319166001600160a01b0384169081179091558190610dde82610850565b6001600160a01b03167f8c5be1e5ebec7d5bd14f71427d1e84f3dd0314c0f7b2291e5b200ac8c7c3b92560405160405180910390a45050565b33610e206109b2565b6001600160a01b0316146109365760405162461bcd60e51b815260206004820181905260248201527f4f776e61626c653a2063616c6c6572206973206e6f7420746865206f776e657260448201526064016105ea565b600080610e8283610850565b9050806001600160a01b0316846001600160a01b03161480610ea95750610ea98185610c6c565b80610ecd5750836001600160a01b0316610ec28461054f565b6001600160a01b0316145b949350505050565b826001600160a01b0316610ee882610850565b6001600160a01b031614610f0e5760405162461bcd60e51b81526004016105ea906119f7565b6001600160a01b038216610f705760405162461bcd60e51b8152602060048201526024808201527f4552433732313a207472616e7366657220746f20746865207a65726f206164646044820152637265737360e01b60648201526084016105ea565b826001600160a01b0316610f8382610850565b6001600160a01b031614610fa95760405162461bcd60e51b81526004016105ea906119f7565b600081815260046020908152604080832080546001600160a01b03199081169091556001600160a01b038781168086526003855283862080546000190190559087168086528386208054600101905586865260029094528285208054909216841790915590518493600080516020611b3f83398151915291a4505050565b6000908152600260205260409020546001600160a01b031690565b600680546001600160a01b038381166001600160a01b0319831681179093556040519116919082907f8be0079c531659141344cd1fd0a4f28419497f9722a3daafe3b4186f6b6457e090600090a35050565b610bb182826040518060200160405280600081525061125a565b816001600160a01b0316836001600160a01b03160361110b5760405162461bcd60e51b815260206004820152601960248201527822a9219b99189d1030b8383937bb32903a379031b0b63632b960391b60448201526064016105ea565b6001600160a01b03838116600081815260056020908152604080832094871680845294825291829020805460ff191686151590811790915591519182527f17307eab39ab6107e8899845ad3d59bd9653f200f220920489ca2b5937696c31910160405180910390a3505050565b611183848484610ed5565b61118f8484848461128d565b610bf25760405162461bcd60e51b81526004016105ea90611a3c565b606060006111b88361138e565b60010190506000816001600160401b038111156111d7576111d7611726565b6040519080825280601f01601f191660200182016040528015611201576020820181803683370190505b5090508181016020015b600019016f181899199a1a9b1b9c1cb0b131b232b360811b600a86061a8153600a850494508461120b57509392505050565b60008061124983611027565b6001600160a01b0316141592915050565b6112648383611464565b611271600084848461128d565b61068b5760405162461bcd60e51b81526004016105ea90611a3c565b60006001600160a01b0384163b1561138357604051630a85bd0160e11b81526001600160a01b0385169063150b7a02906112d1903390899088908890600401611a8e565b6020604051808303816000875af192505050801561130c575060408051601f3d908101601f1916820190925261130991810190611acb565b60015b611369573d80801561133a576040519150601f19603f3d011682016040523d82523d6000602084013e61133f565b606091505b5080516000036113615760405162461bcd60e51b81526004016105ea90611a3c565b805181602001fd5b6001600160e01b031916630a85bd0160e11b149050610ecd565b506001949350505050565b60008072184f03e93ff9f4daa797ed6e38ed64bf6a1f0160401b83106113cd5772184f03e93ff9f4daa797ed6e38ed64bf6a1f0160401b830492506040015b6904ee2d6d415b85acef8160201b83106113f7576904ee2d6d415b85acef8160201b830492506020015b662386f26fc10000831061141557662386f26fc10000830492506010015b6305f5e100831061142d576305f5e100830492506008015b612710831061144157612710830492506004015b60648310611453576064830492506002015b600a83106104b75760010192915050565b6001600160a01b0382166114ba5760405162461bcd60e51b815260206004820181905260248201527f4552433732313a206d696e7420746f20746865207a65726f206164647265737360448201526064016105ea565b6114c38161123d565b156114e05760405162461bcd60e51b81526004016105ea90611ae8565b6114e98161123d565b156115065760405162461bcd60e51b81526004016105ea90611ae8565b6001600160a01b038216600081815260036020908152604080832080546001019055848352600290915280822080546001600160a01b031916841790555183929190600080516020611b3f833981519152908290a45050565b6001600160e01b031981168114610d8157600080fd5b60006020828403121561158757600080fd5b8135610c658161155f565b60005b838110156115ad578181015183820152602001611595565b50506000910152565b600081518084526115ce816020860160208601611592565b601f01601f19169290920160200192915050565b602081526000610c6560208301846115b6565b60006020828403121561160757600080fd5b5035919050565b6001600160a01b0391909116815260200190565b80356001600160a01b038116811461163957600080fd5b919050565b6000806040838503121561165157600080fd5b61165a83611622565b946020939093013593505050565b6000806040838503121561167b57600080fd5b50508035926020909101359150565b60008060006060848603121561169f57600080fd5b6116a884611622565b92506116b660208501611622565b9150604084013590509250925092565b6000602082840312156116d857600080fd5b610c6582611622565b8015158114610d8157600080fd5b6000806040838503121561170257600080fd5b61170b83611622565b9150602083013561171b816116e1565b809150509250929050565b634e487b7160e01b600052604160045260246000fd5b6000806000806080858703121561175257600080fd5b61175b85611622565b935061176960208601611622565b92506040850135915060608501356001600160401b038082111561178c57600080fd5b818701915087601f8301126117a057600080fd5b8135818111156117b2576117b2611726565b604051601f8201601f19908116603f011681019083821181831017156117da576117da611726565b816040528281528a60208487010111156117f357600080fd5b82602086016020830137600060208483010152809550505050505092959194509250565b6000806040838503121561182a57600080fd5b61183383611622565b915061184160208401611622565b90509250929050565b600181811c9082168061185e57607f821691505b60208210810361187e57634e487b7160e01b600052602260045260246000fd5b50919050565b6020808252602d908201527f4552433732313a2063616c6c6572206973206e6f7420746f6b656e206f776e6560408201526c1c881bdc88185c1c1c9bdd9959609a1b606082015260800190565b6000602082840312156118e357600080fd5b5051919050565b6000602082840312156118fc57600080fd5b8151610c65816116e1565b602080825260189082015277115490cdcc8c4e881a5b9d985b1a59081d1bdad95b88125160421b604082015260600190565b60208082526029908201527f4361706974616c52657061796d656e7450726f70657274793a20746f6b656e73604082015268081cdbdb19081bdd5d60ba1b606082015260800190565b634e487b7160e01b600052601160045260246000fd5b80820281158282048414176104b7576104b7611982565b6000600182016119c1576119c1611982565b5060010190565b600083516119da818460208801611592565b8351908301906119ee818360208801611592565b01949350505050565b60208082526025908201527f4552433732313a207472616e736665722066726f6d20696e636f72726563742060408201526437bbb732b960d91b606082015260800190565b60208082526032908201527f4552433732313a207472616e7366657220746f206e6f6e20455243373231526560408201527131b2b4bb32b91034b6b83632b6b2b73a32b960711b606082015260800190565b6001600160a01b0385811682528416602082015260408101839052608060608201819052600090611ac1908301846115b6565b9695505050505050565b600060208284031215611add57600080fd5b8151610c658161155f565b6020808252601c908201527b115490cdcc8c4e881d1bdad95b88185b1c9958591e481b5a5b9d195960221b60408201526060019056fe4361706974616c52657061796d656e7450726f70657274793a20616c72656164ddf252ad1be2c89b69c2b068fc378daa952ba7f163c4a11628f55a4df523b3efa2646970667358221220c9bdbaa4add8371a53365db242d9a4a3006d54fbd474a21c531411407c75033264736f6c63430008110033",
  "linkReferences": {},
  "deployedLinkReferences": {}
}