{
  "_format": "hh-sol-artifact-1",
  "contractName": "pLBM",
  "sourceName": "contracts/pLBM.sol",
  "abi": [
    {
      "inputs": [
        {
          "internalType": "address",
          "name": "_usdc",
          "type": "address"
        }
      ],
      "stateMutability": "nonpayable",
      "type": "constructor"
    },
    {
      "inputs": [
        {
          "internalType": "address",
          "name": "spender",
          "type": "address"
        },
        {
          "internalType": "uint256",
          "name": "allowance",
          "type": "uint256"
        },
        {
          "internalType": "uint256",
          "name": "needed",
          "type": "uint256"
        }
      ],
      "name": "ERC20InsufficientAllowance",
      "type": "error"
    },
    {
      "inputs": [
        {
          "internalType": "address",
          "name": "sender",
          "type": "address"
        },
        {
          "internalType": "uint256",
          "name": "balance",
          "type": "uint256"
        },
        {
          "internalType": "uint256",
          "name": "needed",
          "type": "uint256"
        }
      ],
      "name": "ERC20InsufficientBalance",
      "type": "error"
    },
    {
      "inputs": [
        {
          "internalType": "address",
          "name": "approver",
          "type": "address"
        }
      ],
      "name": "ERC20InvalidApprover",
      "type": "error"
    },
    {
      "inputs": [
        {
          "internalType": "address",
          "name": "receiver",
          "type": "address"
        }
      ],
      "name": "ERC20InvalidReceiver",
      "type": "error"
    },
    {
      "inputs": [
        {
          "internalType": "address",
          "name": "sender",
          "type": "address"
        }
      ],
      "name": "ERC20InvalidSender",
      "type": "error"
    },
    {
      "inputs": [
        {
          "internalType": "address",
          "name": "spender",
          "type": "address"
        }
      ],
      "name": "ERC20InvalidSpender",
      "type": "error"
    },
    {
      "inputs": [
        {
          "internalType": "address",
          "name": "owner",
          "type": "address"
        }
      ],
      "name": "OwnableInvalidOwner",
      "type": "error"
    },
    {
      "inputs": [
        {
          "internalType": "address",
          "name": "account",
          "type": "address"
        }
      ],
      "name": "OwnableUnauthorizedAccount",
      "type": "error"
    },
    {
      "anonymous": false,
      "inputs": [
        {
          "indexed": true,
          "internalType": "address",
          "name": "owner",
          "type": "address"
        },
        {
          "indexed": true,
          "internalType": "address",
          "name": "spender",
          "type": "address"
        },
        {
          "indexed": false,
          "internalType": "uint256",
          "name": "value",
          "type": "uint256"
        }
      ],
      "name": "Approval",
      "type": "event"
    },
    {
      "anonymous": false,
      "inputs": [
        {
          "indexed": true,
          "internalType": "address",
          "name": "previousOwner",
          "type": "address"
        },
        {
          "indexed": true,
          "internalType": "address",
          "name": "newOwner",
          "type": "address"
        }
      ],
      "name": "OwnershipTransferred",
      "type": "event"
    },
    {
      "anonymous": false,
      "inputs": [
        {
          "indexed": true,
          "internalType": "address",
          "name": "from",
          "type": "address"
        },
        {
          "indexed": true,
          "internalType": "address",
          "name": "to",
          "type": "address"
        },
        {
          "indexed": false,
          "internalType": "uint256",
          "name": "value",
          "type": "uint256"
        }
      ],
      "name": "Transfer",
      "type": "event"
    },
    {
      "inputs": [],
      "name": "advanceToNextStage",
      "outputs": [],
      "stateMutability": "nonpayable",
      "type": "function"
    },
    {
      "inputs": [
        {
          "internalType": "address",
          "name": "owner",
          "type": "address"
        },
        {
          "internalType": "address",
          "name": "spender",
          "type": "address"
        }
      ],
      "name": "allowance",
      "outputs": [
        {
          "internalType": "uint256",
          "name": "",
          "type": "uint256"
        }
      ],
      "stateMutability": "view",
      "type": "function"
    },
    {
      "inputs": [
        {
          "internalType": "address",
          "name": "spender",
          "type": "address"
        },
        {
          "internalType": "uint256",
          "name": "value",
          "type": "uint256"
        }
      ],
      "name": "approve",
      "outputs": [
        {
          "internalType": "bool",
          "name": "",
          "type": "bool"
        }
      ],
      "stateMutability": "nonpayable",
      "type": "function"
    },
    {
      "inputs": [
        {
          "internalType": "address",
          "name": "account",
          "type": "address"
        }
      ],
      "name": "balanceOf",
      "outputs": [
        {
          "internalType": "uint256",
          "name": "",
          "type": "uint256"
        }
      ],
      "stateMutability": "view",
      "type": "function"
    },
    {
      "inputs": [
        {
          "internalType": "uint256",
          "name": "amount",
          "type": "uint256"
        }
      ],
      "name": "buy",
      "outputs": [],
      "stateMutability": "nonpayable",
      "type": "function"
    },
    {
      "inputs": [],
      "name": "currentStage",
      "outputs": [
        {
          "internalType": "enum pLBM.SaleStage",
          "name": "",
          "type": "uint8"
        }
      ],
      "stateMutability": "view",
      "type": "function"
    },
    {
      "inputs": [],
      "name": "decimals",
      "outputs": [
        {
          "internalType": "uint8",
          "name": "",
          "type": "uint8"
        }
      ],
      "stateMutability": "view",
      "type": "function"
    },
    {
      "inputs": [
        {
          "internalType": "address[]",
          "name": "users",
          "type": "address[]"
        },
        {
          "internalType": "uint256[]",
          "name": "allocations",
          "type": "uint256[]"
        }
      ],
      "name": "modifyWhitelistAllocations",
      "outputs": [],
      "stateMutability": "nonpayable",
      "type": "function"
    },
    {
      "inputs": [],
      "name": "name",
      "outputs": [
        {
          "internalType": "string",
          "name": "",
          "type": "string"
        }
      ],
      "stateMutability": "view",
      "type": "function"
    },
    {
      "inputs": [],
      "name": "owner",
      "outputs": [
        {
          "internalType": "address",
          "name": "",
          "type": "address"
        }
      ],
      "stateMutability": "view",
      "type": "function"
    },
    {
      "inputs": [],
      "name": "publicPrice",
      "outputs": [
        {
          "internalType": "uint256",
          "name": "",
          "type": "uint256"
        }
      ],
      "stateMutability": "view",
      "type": "function"
    },
    {
      "inputs": [],
      "name": "publicTokensRemaining",
      "outputs": [
        {
          "internalType": "uint256",
          "name": "",
          "type": "uint256"
        }
      ],
      "stateMutability": "view",
      "type": "function"
    },
    {
      "inputs": [],
      "name": "renounceOwnership",
      "outputs": [],
      "stateMutability": "nonpayable",
      "type": "function"
    },
    {
      "inputs": [],
      "name": "seedPrice",
      "outputs": [
        {
          "internalType": "uint256",
          "name": "",
          "type": "uint256"
        }
      ],
      "stateMutability": "view",
      "type": "function"
    },
    {
      "inputs": [],
      "name": "seedTokensRemaining",
      "outputs": [
        {
          "internalType": "uint256",
          "name": "",
          "type": "uint256"
        }
      ],
      "stateMutability": "view",
      "type": "function"
    },
    {
      "inputs": [],
      "name": "symbol",
      "outputs": [
        {
          "internalType": "string",
          "name": "",
          "type": "string"
        }
      ],
      "stateMutability": "view",
      "type": "function"
    },
    {
      "inputs": [],
      "name": "totalSupply",
      "outputs": [
        {
          "internalType": "uint256",
          "name": "",
          "type": "uint256"
        }
      ],
      "stateMutability": "view",
      "type": "function"
    },
    {
      "inputs": [
        {
          "internalType": "address",
          "name": "to",
          "type": "address"
        },
        {
          "internalType": "uint256",
          "name": "value",
          "type": "uint256"
        }
      ],
      "name": "transfer",
      "outputs": [
        {
          "internalType": "bool",
          "name": "",
          "type": "bool"
        }
      ],
      "stateMutability": "nonpayable",
      "type": "function"
    },
    {
      "inputs": [
        {
          "internalType": "address",
          "name": "from",
          "type": "address"
        },
        {
          "internalType": "address",
          "name": "to",
          "type": "address"
        },
        {
          "internalType": "uint256",
          "name": "value",
          "type": "uint256"
        }
      ],
      "name": "transferFrom",
      "outputs": [
        {
          "internalType": "bool",
          "name": "",
          "type": "bool"
        }
      ],
      "stateMutability": "nonpayable",
      "type": "function"
    },
    {
      "inputs": [
        {
          "internalType": "address",
          "name": "newOwner",
          "type": "address"
        }
      ],
      "name": "transferOwnership",
      "outputs": [],
      "stateMutability": "nonpayable",
      "type": "function"
    },
    {
      "inputs": [],
      "name": "usdc",
      "outputs": [
        {
          "internalType": "contract IERC20",
          "name": "",
          "type": "address"
        }
      ],
      "stateMutability": "view",
      "type": "function"
    },
    {
      "inputs": [
        {
          "internalType": "address",
          "name": "user",
          "type": "address"
        }
      ],
      "name": "viewWhitelistAllocation",
      "outputs": [
        {
          "internalType": "uint256",
          "name": "",
          "type": "uint256"
        }
      ],
      "stateMutability": "view",
      "type": "function"
    },
    {
      "inputs": [
        {
          "internalType": "address",
          "name": "",
          "type": "address"
        }
      ],
      "name": "whitelistAllocations",
      "outputs": [
        {
          "internalType": "uint256",
          "name": "",
          "type": "uint256"
        }
      ],
      "stateMutability": "view",
      "type": "function"
    },
    {
      "inputs": [],
      "name": "whitelistPrice",
      "outputs": [
        {
          "internalType": "uint256",
          "name": "",
          "type": "uint256"
        }
      ],
      "stateMutability": "view",
      "type": "function"
    },
    {
      "inputs": [],
      "name": "whitelistTokensRemaining",
      "outputs": [
        {
          "internalType": "uint256",
          "name": "",
          "type": "uint256"
        }
      ],
      "stateMutability": "view",
      "type": "function"
    },
    {
      "inputs": [],
      "name": "withdrawAllFunds",
      "outputs": [],
      "stateMutability": "nonpayable",
      "type": "function"
    }
  ],
  "bytecode": "0x60806040526a01a784379d99db420000006007556a18d0bf423c03d8de0000006008556a18d0bf423c03d8de00000060095561ea60600a5562011940600b5562013880600c556000600d60006101000a81548160ff021916908360068111156200006e576200006d620002ce565b5b02179055503480156200008057600080fd5b5060405162002fc838038062002fc88339818101604052810190620000a6919062000367565b336040518060400160405280600481526020017f704c424d000000000000000000000000000000000000000000000000000000008152506040518060400160405280600481526020017f704c424d00000000000000000000000000000000000000000000000000000000815250816003908162000124919062000613565b50806004908162000136919062000613565b505050600073ffffffffffffffffffffffffffffffffffffffff168173ffffffffffffffffffffffffffffffffffffffff1603620001ae5760006040517f1e4fbdf7000000000000000000000000000000000000000000000000000000008152600401620001a591906200070b565b60405180910390fd5b620001bf816200020860201b60201c565b5080600660006101000a81548173ffffffffffffffffffffffffffffffffffffffff021916908373ffffffffffffffffffffffffffffffffffffffff1602179055505062000728565b6000600560009054906101000a900473ffffffffffffffffffffffffffffffffffffffff16905081600560006101000a81548173ffffffffffffffffffffffffffffffffffffffff021916908373ffffffffffffffffffffffffffffffffffffffff1602179055508173ffffffffffffffffffffffffffffffffffffffff168173ffffffffffffffffffffffffffffffffffffffff167f8be0079c531659141344cd1fd0a4f28419497f9722a3daafe3b4186f6b6457e060405160405180910390a35050565b7f4e487b7100000000000000000000000000000000000000000000000000000000600052602160045260246000fd5b600080fd5b600073ffffffffffffffffffffffffffffffffffffffff82169050919050565b60006200032f8262000302565b9050919050565b620003418162000322565b81146200034d57600080fd5b50565b600081519050620003618162000336565b92915050565b60006020828403121562000380576200037f620002fd565b5b6000620003908482850162000350565b91505092915050565b600081519050919050565b7f4e487b7100000000000000000000000000000000000000000000000000000000600052604160045260246000fd5b7f4e487b7100000000000000000000000000000000000000000000000000000000600052602260045260246000fd5b600060028204905060018216806200041b57607f821691505b602082108103620004315762000430620003d3565b5b50919050565b60008190508160005260206000209050919050565b60006020601f8301049050919050565b600082821b905092915050565b6000600883026200049b7fffffffffffffffffffffffffffffffffffffffffffffffffffffffffffffffff826200045c565b620004a786836200045c565b95508019841693508086168417925050509392505050565b6000819050919050565b6000819050919050565b6000620004f4620004ee620004e884620004bf565b620004c9565b620004bf565b9050919050565b6000819050919050565b6200051083620004d3565b620005286200051f82620004fb565b84845462000469565b825550505050565b600090565b6200053f62000530565b6200054c81848462000505565b505050565b5b8181101562000574576200056860008262000535565b60018101905062000552565b5050565b601f821115620005c3576200058d8162000437565b62000598846200044c565b81016020851015620005a8578190505b620005c0620005b7856200044c565b83018262000551565b50505b505050565b600082821c905092915050565b6000620005e860001984600802620005c8565b1980831691505092915050565b6000620006038383620005d5565b9150826002028217905092915050565b6200061e8262000399565b67ffffffffffffffff8111156200063a5762000639620003a4565b5b62000646825462000402565b6200065382828562000578565b600060209050601f8311600181146200068b576000841562000676578287015190505b620006828582620005f5565b865550620006f2565b601f1984166200069b8662000437565b60005b82811015620006c5578489015182556001820191506020850194506020810190506200069e565b86831015620006e55784890151620006e1601f891682620005d5565b8355505b6001600288020188555050505b505050505050565b620007058162000322565b82525050565b6000602082019050620007226000830184620006fa565b92915050565b61289080620007386000396000f3fe608060405234801561001057600080fd5b506004361061018e5760003560e01c80637e34cd3d116100de578063bd90f0d111610097578063eeca3ba811610071578063eeca3ba814610453578063f2fde38b14610483578063f3b90e491461049f578063fc1a1c36146104bd5761018e565b8063bd90f0d1146103d7578063d96a094a14610407578063dd62ed3e146104235761018e565b80637e34cd3d146103115780638880bfdf1461032f5780638da5cb5b1461034d57806395d89b411461036b578063a9059cbb14610389578063a945bf80146103b95761018e565b80633e413bee1161014b5780635bf5d54c116101255780635bf5d54c146102af578063679b1ad1146102cd57806370a08231146102d7578063715018a6146103075761018e565b80633e413bee1461026b578063470a2d691461028957806349649fbf146102a55761018e565b806306fdde0314610193578063095ea7b3146101b157806318160ddd146101e157806323b872dd146101ff5780632bfff60e1461022f578063313ce5671461024d575b600080fd5b61019b6104db565b6040516101a89190611b6b565b60405180910390f35b6101cb60048036038101906101c69190611c35565b61056d565b6040516101d89190611c90565b60405180910390f35b6101e9610590565b6040516101f69190611cba565b60405180910390f35b61021960048036038101906102149190611cd5565b61059a565b6040516102269190611c90565b60405180910390f35b6102376105c9565b6040516102449190611cba565b60405180910390f35b6102556105cf565b6040516102629190611d44565b60405180910390f35b6102736105d8565b6040516102809190611dbe565b60405180910390f35b6102a3600480360381019061029e9190611fe4565b6105fe565b005b6102ad6106e6565b005b6102b76108df565b6040516102c491906120d3565b60405180910390f35b6102d56108f2565b005b6102f160048036038101906102ec91906120ee565b6109da565b6040516102fe9190611cba565b60405180910390f35b61030f610a22565b005b610319610a36565b6040516103269190611cba565b60405180910390f35b610337610a3c565b6040516103449190611cba565b60405180910390f35b610355610a42565b604051610362919061212a565b60405180910390f35b610373610a6c565b6040516103809190611b6b565b60405180910390f35b6103a3600480360381019061039e9190611c35565b610afe565b6040516103b09190611c90565b60405180910390f35b6103c1610b21565b6040516103ce9190611cba565b60405180910390f35b6103f160048036038101906103ec91906120ee565b610b27565b6040516103fe9190611cba565b60405180910390f35b610421600480360381019061041c9190612145565b610b70565b005b61043d60048036038101906104389190612172565b61123d565b60405161044a9190611cba565b60405180910390f35b61046d600480360381019061046891906120ee565b6112c4565b60405161047a9190611cba565b60405180910390f35b61049d600480360381019061049891906120ee565b6112dc565b005b6104a7611362565b6040516104b49190611cba565b60405180910390f35b6104c5611368565b6040516104d29190611cba565b60405180910390f35b6060600380546104ea906121e1565b80601f0160208091040260200160405190810160405280929190818152602001828054610516906121e1565b80156105635780601f1061053857610100808354040283529160200191610563565b820191906000526020600020905b81548152906001019060200180831161054657829003601f168201915b5050505050905090565b60008061057861136e565b9050610585818585611376565b600191505092915050565b6000600254905090565b6000806105a561136e565b90506105b2858285611388565b6105bd85858561141c565b60019150509392505050565b60075481565b60006012905090565b600660009054906101000a900473ffffffffffffffffffffffffffffffffffffffff1681565b610606611510565b805182511461064a576040517f08c379a00000000000000000000000000000000000000000000000000000000081526004016106419061225e565b60405180910390fd5b60005b82518110156106e1578181815181106106695761066861227e565b5b6020026020010151600e60008584815181106106885761068761227e565b5b602002602001015173ffffffffffffffffffffffffffffffffffffffff1673ffffffffffffffffffffffffffffffffffffffff1681526020019081526020016000208190555080806106d9906122dc565b91505061064d565b505050565b6106ee611510565b6006808111156107015761070061205c565b5b600d60009054906101000a900460ff1660068111156107235761072261205c565b5b14610763576040517f08c379a000000000000000000000000000000000000000000000000000000000815260040161075a90612370565b60405180910390fd5b600660009054906101000a900473ffffffffffffffffffffffffffffffffffffffff1673ffffffffffffffffffffffffffffffffffffffff1663a9059cbb33600660009054906101000a900473ffffffffffffffffffffffffffffffffffffffff1673ffffffffffffffffffffffffffffffffffffffff166370a08231306040518263ffffffff1660e01b81526004016107fd919061212a565b602060405180830381865afa15801561081a573d6000803e3d6000fd5b505050506040513d601f19601f8201168201806040525081019061083e91906123a5565b6040518363ffffffff1660e01b815260040161085b9291906123d2565b6020604051808303816000875af115801561087a573d6000803e3d6000fd5b505050506040513d601f19601f8201168201806040525081019061089e9190612427565b6108dd576040517f08c379a00000000000000000000000000000000000000000000000000000000081526004016108d4906124a0565b60405180910390fd5b565b600d60009054906101000a900460ff1681565b6108fa611510565b60068081111561090d5761090c61205c565b5b600d60009054906101000a900460ff16600681111561092f5761092e61205c565b5b0361096f576040517f08c379a00000000000000000000000000000000000000000000000000000000081526004016109669061250c565b60405180910390fd5b6001600d60009054906101000a900460ff1660068111156109935761099261205c565b5b61099d919061252c565b60068111156109af576109ae61205c565b5b600d60006101000a81548160ff021916908360068111156109d3576109d261205c565b5b0217905550565b60008060008373ffffffffffffffffffffffffffffffffffffffff1673ffffffffffffffffffffffffffffffffffffffff168152602001908152602001600020549050919050565b610a2a611510565b610a346000611597565b565b600a5481565b60095481565b6000600560009054906101000a900473ffffffffffffffffffffffffffffffffffffffff16905090565b606060048054610a7b906121e1565b80601f0160208091040260200160405190810160405280929190818152602001828054610aa7906121e1565b8015610af45780601f10610ac957610100808354040283529160200191610af4565b820191906000526020600020905b815481529060010190602001808311610ad757829003601f168201915b5050505050905090565b600080610b0961136e565b9050610b1681858561141c565b600191505092915050565b600c5481565b6000600e60008373ffffffffffffffffffffffffffffffffffffffff1673ffffffffffffffffffffffffffffffffffffffff168152602001908152602001600020549050919050565b600d60009054906101000a900460ff1660016006811115610b9457610b9361205c565b5b600d60009054906101000a900460ff166006811115610bb657610bb561205c565b5b1480610bf5575060036006811115610bd157610bd061205c565b5b600d60009054906101000a900460ff166006811115610bf357610bf261205c565b5b145b80610c33575060056006811115610c0f57610c0e61205c565b5b600d60009054906101000a900460ff166006811115610c3157610c3061205c565b5b145b610c72576040517f08c379a0000000000000000000000000000000000000000000000000000000008152600401610c69906125d2565b60405180910390fd5b60016006811115610c8657610c8561205c565b5b600d60009054906101000a900460ff166006811115610ca857610ca761205c565b5b03610e1757816007541015610cf2576040517f08c379a0000000000000000000000000000000000000000000000000000000008152600401610ce990612664565b60405180910390fd5b600660009054906101000a900473ffffffffffffffffffffffffffffffffffffffff1673ffffffffffffffffffffffffffffffffffffffff166323b872dd3330670de0b6b3a7640000600a5487610d499190612684565b610d5391906126f5565b6040518463ffffffff1660e01b8152600401610d7193929190612726565b6020604051808303816000875af1158015610d90573d6000803e3d6000fd5b505050506040513d601f19601f82011682018060405250810190610db49190612427565b610df3576040517f08c379a0000000000000000000000000000000000000000000000000000000008152600401610dea906124a0565b60405180910390fd5b8160076000828254610e05919061275d565b92505081905550610e16338361165d565b5b60036006811115610e2b57610e2a61205c565b5b600d60009054906101000a900460ff166006811115610e4d57610e4c61205c565b5b0361109457816008541015610e97576040517f08c379a0000000000000000000000000000000000000000000000000000000008152600401610e8e90612664565b60405180910390fd5b81600e60003373ffffffffffffffffffffffffffffffffffffffff1673ffffffffffffffffffffffffffffffffffffffff168152602001908152602001600020541015610f19576040517f08c379a0000000000000000000000000000000000000000000000000000000008152600401610f1090612803565b60405180910390fd5b600660009054906101000a900473ffffffffffffffffffffffffffffffffffffffff1673ffffffffffffffffffffffffffffffffffffffff166323b872dd3330670de0b6b3a7640000600b5487610f709190612684565b610f7a91906126f5565b6040518463ffffffff1660e01b8152600401610f9893929190612726565b6020604051808303816000875af1158015610fb7573d6000803e3d6000fd5b505050506040513d601f19601f82011682018060405250810190610fdb9190612427565b61101a576040517f08c379a0000000000000000000000000000000000000000000000000000000008152600401611011906124a0565b60405180910390fd5b816008600082825461102c919061275d565b9250508190555081600e60003373ffffffffffffffffffffffffffffffffffffffff1673ffffffffffffffffffffffffffffffffffffffff1681526020019081526020016000206000828254611082919061275d565b92505081905550611093338361165d565b5b600560068111156110a8576110a761205c565b5b600d60009054906101000a900460ff1660068111156110ca576110c961205c565b5b0361123957816009541015611114576040517f08c379a000000000000000000000000000000000000000000000000000000000815260040161110b90612664565b60405180910390fd5b600660009054906101000a900473ffffffffffffffffffffffffffffffffffffffff1673ffffffffffffffffffffffffffffffffffffffff166323b872dd3330670de0b6b3a7640000600c548761116b9190612684565b61117591906126f5565b6040518463ffffffff1660e01b815260040161119393929190612726565b6020604051808303816000875af11580156111b2573d6000803e3d6000fd5b505050506040513d601f19601f820116820180604052508101906111d69190612427565b611215576040517f08c379a000000000000000000000000000000000000000000000000000000000815260040161120c906124a0565b60405180910390fd5b8160096000828254611227919061275d565b92505081905550611238338361165d565b5b5050565b6000600160008473ffffffffffffffffffffffffffffffffffffffff1673ffffffffffffffffffffffffffffffffffffffff16815260200190815260200160002060008373ffffffffffffffffffffffffffffffffffffffff1673ffffffffffffffffffffffffffffffffffffffff16815260200190815260200160002054905092915050565b600e6020528060005260406000206000915090505481565b6112e4611510565b600073ffffffffffffffffffffffffffffffffffffffff168173ffffffffffffffffffffffffffffffffffffffff16036113565760006040517f1e4fbdf700000000000000000000000000000000000000000000000000000000815260040161134d919061212a565b60405180910390fd5b61135f81611597565b50565b60085481565b600b5481565b600033905090565b61138383838360016116df565b505050565b6000611394848461123d565b90507fffffffffffffffffffffffffffffffffffffffffffffffffffffffffffffffff81146114165781811015611406578281836040517ffb8f41b20000000000000000000000000000000000000000000000000000000081526004016113fd93929190612823565b60405180910390fd5b611415848484840360006116df565b5b50505050565b600073ffffffffffffffffffffffffffffffffffffffff168373ffffffffffffffffffffffffffffffffffffffff160361148e5760006040517f96c6fd1e000000000000000000000000000000000000000000000000000000008152600401611485919061212a565b60405180910390fd5b600073ffffffffffffffffffffffffffffffffffffffff168273ffffffffffffffffffffffffffffffffffffffff16036115005760006040517fec442f050000000000000000000000000000000000000000000000000000000081526004016114f7919061212a565b60405180910390fd5b61150b8383836118b6565b505050565b61151861136e565b73ffffffffffffffffffffffffffffffffffffffff16611536610a42565b73ffffffffffffffffffffffffffffffffffffffff16146115955761155961136e565b6040517f118cdaa700000000000000000000000000000000000000000000000000000000815260040161158c919061212a565b60405180910390fd5b565b6000600560009054906101000a900473ffffffffffffffffffffffffffffffffffffffff16905081600560006101000a81548173ffffffffffffffffffffffffffffffffffffffff021916908373ffffffffffffffffffffffffffffffffffffffff1602179055508173ffffffffffffffffffffffffffffffffffffffff168173ffffffffffffffffffffffffffffffffffffffff167f8be0079c531659141344cd1fd0a4f28419497f9722a3daafe3b4186f6b6457e060405160405180910390a35050565b600073ffffffffffffffffffffffffffffffffffffffff168273ffffffffffffffffffffffffffffffffffffffff16036116cf5760006040517fec442f050000000000000000000000000000000000000000000000000000000081526004016116c6919061212a565b60405180910390fd5b6116db600083836118b6565b5050565b600073ffffffffffffffffffffffffffffffffffffffff168473ffffffffffffffffffffffffffffffffffffffff16036117515760006040517fe602df05000000000000000000000000000000000000000000000000000000008152600401611748919061212a565b60405180910390fd5b600073ffffffffffffffffffffffffffffffffffffffff168373ffffffffffffffffffffffffffffffffffffffff16036117c35760006040517f94280d620000000000000000000000000000000000000000000000000000000081526004016117ba919061212a565b60405180910390fd5b81600160008673ffffffffffffffffffffffffffffffffffffffff1673ffffffffffffffffffffffffffffffffffffffff16815260200190815260200160002060008573ffffffffffffffffffffffffffffffffffffffff1673ffffffffffffffffffffffffffffffffffffffff1681526020019081526020016000208190555080156118b0578273ffffffffffffffffffffffffffffffffffffffff168473ffffffffffffffffffffffffffffffffffffffff167f8c5be1e5ebec7d5bd14f71427d1e84f3dd0314c0f7b2291e5b200ac8c7c3b925846040516118a79190611cba565b60405180910390a35b50505050565b600073ffffffffffffffffffffffffffffffffffffffff168373ffffffffffffffffffffffffffffffffffffffff16036119085780600260008282546118fc919061252c565b925050819055506119db565b60008060008573ffffffffffffffffffffffffffffffffffffffff1673ffffffffffffffffffffffffffffffffffffffff16815260200190815260200160002054905081811015611994578381836040517fe450d38c00000000000000000000000000000000000000000000000000000000815260040161198b93929190612823565b60405180910390fd5b8181036000808673ffffffffffffffffffffffffffffffffffffffff1673ffffffffffffffffffffffffffffffffffffffff16815260200190815260200160002081905550505b600073ffffffffffffffffffffffffffffffffffffffff168273ffffffffffffffffffffffffffffffffffffffff1603611a245780600260008282540392505081905550611a71565b806000808473ffffffffffffffffffffffffffffffffffffffff1673ffffffffffffffffffffffffffffffffffffffff168152602001908152602001600020600082825401925050819055505b8173ffffffffffffffffffffffffffffffffffffffff168373ffffffffffffffffffffffffffffffffffffffff167fddf252ad1be2c89b69c2b068fc378daa952ba7f163c4a11628f55a4df523b3ef83604051611ace9190611cba565b60405180910390a3505050565b600081519050919050565b600082825260208201905092915050565b60005b83811015611b15578082015181840152602081019050611afa565b60008484015250505050565b6000601f19601f8301169050919050565b6000611b3d82611adb565b611b478185611ae6565b9350611b57818560208601611af7565b611b6081611b21565b840191505092915050565b60006020820190508181036000830152611b858184611b32565b905092915050565b6000604051905090565b600080fd5b600080fd5b600073ffffffffffffffffffffffffffffffffffffffff82169050919050565b6000611bcc82611ba1565b9050919050565b611bdc81611bc1565b8114611be757600080fd5b50565b600081359050611bf981611bd3565b92915050565b6000819050919050565b611c1281611bff565b8114611c1d57600080fd5b50565b600081359050611c2f81611c09565b92915050565b60008060408385031215611c4c57611c4b611b97565b5b6000611c5a85828601611bea565b9250506020611c6b85828601611c20565b9150509250929050565b60008115159050919050565b611c8a81611c75565b82525050565b6000602082019050611ca56000830184611c81565b92915050565b611cb481611bff565b82525050565b6000602082019050611ccf6000830184611cab565b92915050565b600080600060608486031215611cee57611ced611b97565b5b6000611cfc86828701611bea565b9350506020611d0d86828701611bea565b9250506040611d1e86828701611c20565b9150509250925092565b600060ff82169050919050565b611d3e81611d28565b82525050565b6000602082019050611d596000830184611d35565b92915050565b6000819050919050565b6000611d84611d7f611d7a84611ba1565b611d5f565b611ba1565b9050919050565b6000611d9682611d69565b9050919050565b6000611da882611d8b565b9050919050565b611db881611d9d565b82525050565b6000602082019050611dd36000830184611daf565b92915050565b600080fd5b7f4e487b7100000000000000000000000000000000000000000000000000000000600052604160045260246000fd5b611e1682611b21565b810181811067ffffffffffffffff82111715611e3557611e34611dde565b5b80604052505050565b6000611e48611b8d565b9050611e548282611e0d565b919050565b600067ffffffffffffffff821115611e7457611e73611dde565b5b602082029050602081019050919050565b600080fd5b6000611e9d611e9884611e59565b611e3e565b90508083825260208201905060208402830185811115611ec057611ebf611e85565b5b835b81811015611ee95780611ed58882611bea565b845260208401935050602081019050611ec2565b5050509392505050565b600082601f830112611f0857611f07611dd9565b5b8135611f18848260208601611e8a565b91505092915050565b600067ffffffffffffffff821115611f3c57611f3b611dde565b5b602082029050602081019050919050565b6000611f60611f5b84611f21565b611e3e565b90508083825260208201905060208402830185811115611f8357611f82611e85565b5b835b81811015611fac5780611f988882611c20565b845260208401935050602081019050611f85565b5050509392505050565b600082601f830112611fcb57611fca611dd9565b5b8135611fdb848260208601611f4d565b91505092915050565b60008060408385031215611ffb57611ffa611b97565b5b600083013567ffffffffffffffff81111561201957612018611b9c565b5b61202585828601611ef3565b925050602083013567ffffffffffffffff81111561204657612045611b9c565b5b61205285828601611fb6565b9150509250929050565b7f4e487b7100000000000000000000000000000000000000000000000000000000600052602160045260246000fd5b6007811061209c5761209b61205c565b5b50565b60008190506120ad8261208b565b919050565b60006120bd8261209f565b9050919050565b6120cd816120b2565b82525050565b60006020820190506120e860008301846120c4565b92915050565b60006020828403121561210457612103611b97565b5b600061211284828501611bea565b91505092915050565b61212481611bc1565b82525050565b600060208201905061213f600083018461211b565b92915050565b60006020828403121561215b5761215a611b97565b5b600061216984828501611c20565b91505092915050565b6000806040838503121561218957612188611b97565b5b600061219785828601611bea565b92505060206121a885828601611bea565b9150509250929050565b7f4e487b7100000000000000000000000000000000000000000000000000000000600052602260045260246000fd5b600060028204905060018216806121f957607f821691505b60208210810361220c5761220b6121b2565b5b50919050565b7f704c424d3a20496e76616c696420696e707574206c656e677468730000000000600082015250565b6000612248601b83611ae6565b915061225382612212565b602082019050919050565b600060208201905081810360008301526122778161223b565b9050919050565b7f4e487b7100000000000000000000000000000000000000000000000000000000600052603260045260246000fd5b7f4e487b7100000000000000000000000000000000000000000000000000000000600052601160045260246000fd5b60006122e782611bff565b91507fffffffffffffffffffffffffffffffffffffffffffffffffffffffffffffffff8203612319576123186122ad565b5b600182019050919050565b7f704c424d3a2053616c6520686173206e6f7420656e6465640000000000000000600082015250565b600061235a601883611ae6565b915061236582612324565b602082019050919050565b600060208201905081810360008301526123898161234d565b9050919050565b60008151905061239f81611c09565b92915050565b6000602082840312156123bb576123ba611b97565b5b60006123c984828501612390565b91505092915050565b60006040820190506123e7600083018561211b565b6123f46020830184611cab565b9392505050565b61240481611c75565b811461240f57600080fd5b50565b600081519050612421816123fb565b92915050565b60006020828403121561243d5761243c611b97565b5b600061244b84828501612412565b91505092915050565b7f704c424d3a204661696c656420746f207472616e736665722055534443000000600082015250565b600061248a601d83611ae6565b915061249582612454565b602082019050919050565b600060208201905081810360008301526124b98161247d565b9050919050565b7f704c424d3a2053616c652068617320616c726561647920656e64656400000000600082015250565b60006124f6601c83611ae6565b9150612501826124c0565b602082019050919050565b60006020820190508181036000830152612525816124e9565b9050919050565b600061253782611bff565b915061254283611bff565b925082820190508082111561255a576125596122ad565b5b92915050565b7f704c424d3a20496e76616c696420737461676520746f2070757263686173652060008201527f746f6b656e730000000000000000000000000000000000000000000000000000602082015250565b60006125bc602683611ae6565b91506125c782612560565b604082019050919050565b600060208201905081810360008301526125eb816125af565b9050919050565b7f704c424d3a204e6f7420656e6f75676820746f6b656e732072656d61696e696e60008201527f6700000000000000000000000000000000000000000000000000000000000000602082015250565b600061264e602183611ae6565b9150612659826125f2565b604082019050919050565b6000602082019050818103600083015261267d81612641565b9050919050565b600061268f82611bff565b915061269a83611bff565b92508282026126a881611bff565b915082820484148315176126bf576126be6122ad565b5b5092915050565b7f4e487b7100000000000000000000000000000000000000000000000000000000600052601260045260246000fd5b600061270082611bff565b915061270b83611bff565b92508261271b5761271a6126c6565b5b828204905092915050565b600060608201905061273b600083018661211b565b612748602083018561211b565b6127556040830184611cab565b949350505050565b600061276882611bff565b915061277383611bff565b925082820390508181111561278b5761278a6122ad565b5b92915050565b7f704c424d3a205075726368617365206578636565647320616c6c6f636174696f60008201527f6e00000000000000000000000000000000000000000000000000000000000000602082015250565b60006127ed602183611ae6565b91506127f882612791565b604082019050919050565b6000602082019050818103600083015261281c816127e0565b9050919050565b6000606082019050612838600083018661211b565b6128456020830185611cab565b6128526040830184611cab565b94935050505056fea26469706673582212200b242a2628a8b9f924c1768e368182b1a89cdf91dd5e144f76f60ab3ce2b6da364736f6c63430008150033",
  "linkReferences": {},
  "deployedLinkReferences": {}
}