{
  "_format": "hh-sol-artifact-1",
  "contractName": "MockUSDT",
  "sourceName": "contracts/MockUSDT.sol",
  "abi": [
    {
      "inputs": [],
      "stateMutability": "nonpayable",
      "type": "constructor"
    },
    {
      "anonymous": false,
      "inputs": [
        {
          "indexed": true,
          "internalType": "address",
          "name": "owner",
          "type": "address"
        },
        {
          "indexed": true,
          "internalType": "address",
          "name": "spender",
          "type": "address"
        },
        {
          "indexed": false,
          "internalType": "uint256",
          "name": "value",
          "type": "uint256"
        }
      ],
      "name": "Approval",
      "type": "event"
    },
    {
      "anonymous": false,
      "inputs": [
        {
          "indexed": true,
          "internalType": "address",
          "name": "from",
          "type": "address"
        },
        {
          "indexed": true,
          "internalType": "address",
          "name": "to",
          "type": "address"
        },
        {
          "indexed": false,
          "internalType": "uint256",
          "name": "value",
          "type": "uint256"
        }
      ],
      "name": "Transfer",
      "type": "event"
    },
    {
      "inputs": [
        {
          "internalType": "address",
          "name": "owner",
          "type": "address"
        },
        {
          "internalType": "address",
          "name": "spender",
          "type": "address"
        }
      ],
      "name": "allowance",
      "outputs": [
        {
          "internalType": "uint256",
          "name": "",
          "type": "uint256"
        }
      ],
      "stateMutability": "view",
      "type": "function"
    },
    {
      "inputs": [
        {
          "internalType": "address",
          "name": "spender",
          "type": "address"
        },
        {
          "internalType": "uint256",
          "name": "amount",
          "type": "uint256"
        }
      ],
      "name": "approve",
      "outputs": [
        {
          "internalType": "bool",
          "name": "",
          "type": "bool"
        }
      ],
      "stateMutability": "nonpayable",
      "type": "function"
    },
    {
      "inputs": [
        {
          "internalType": "address",
          "name": "account",
          "type": "address"
        }
      ],
      "name": "balanceOf",
      "outputs": [
        {
          "internalType": "uint256",
          "name": "",
          "type": "uint256"
        }
      ],
      "stateMutability": "view",
      "type": "function"
    },
    {
      "inputs": [],
      "name": "decimals",
      "outputs": [
        {
          "internalType": "uint8",
          "name": "",
          "type": "uint8"
        }
      ],
      "stateMutability": "view",
      "type": "function"
    },
    {
      "inputs": [
        {
          "internalType": "address",
          "name": "spender",
          "type": "address"
        },
        {
          "internalType": "uint256",
          "name": "subtractedValue",
          "type": "uint256"
        }
      ],
      "name": "decreaseAllowance",
      "outputs": [
        {
          "internalType": "bool",
          "name": "",
          "type": "bool"
        }
      ],
      "stateMutability": "nonpayable",
      "type": "function"
    },
    {
      "inputs": [
        {
          "internalType": "uint256",
          "name": "quantity",
          "type": "uint256"
        }
      ],
      "name": "faucet",
      "outputs": [],
      "stateMutability": "nonpayable",
      "type": "function"
    },
    {
      "inputs": [
        {
          "internalType": "address",
          "name": "spender",
          "type": "address"
        },
        {
          "internalType": "uint256",
          "name": "addedValue",
          "type": "uint256"
        }
      ],
      "name": "increaseAllowance",
      "outputs": [
        {
          "internalType": "bool",
          "name": "",
          "type": "bool"
        }
      ],
      "stateMutability": "nonpayable",
      "type": "function"
    },
    {
      "inputs": [],
      "name": "name",
      "outputs": [
        {
          "internalType": "string",
          "name": "",
          "type": "string"
        }
      ],
      "stateMutability": "view",
      "type": "function"
    },
    {
      "inputs": [],
      "name": "symbol",
      "outputs": [
        {
          "internalType": "string",
          "name": "",
          "type": "string"
        }
      ],
      "stateMutability": "view",
      "type": "function"
    },
    {
      "inputs": [],
      "name": "totalSupply",
      "outputs": [
        {
          "internalType": "uint256",
          "name": "",
          "type": "uint256"
        }
      ],
      "stateMutability": "view",
      "type": "function"
    },
    {
      "inputs": [
        {
          "internalType": "address",
          "name": "to",
          "type": "address"
        },
        {
          "internalType": "uint256",
          "name": "amount",
          "type": "uint256"
        }
      ],
      "name": "transfer",
      "outputs": [
        {
          "internalType": "bool",
          "name": "",
          "type": "bool"
        }
      ],
      "stateMutability": "nonpayable",
      "type": "function"
    },
    {
      "inputs": [
        {
          "internalType": "address",
          "name": "from",
          "type": "address"
        },
        {
          "internalType": "address",
          "name": "to",
          "type": "address"
        },
        {
          "internalType": "uint256",
          "name": "amount",
          "type": "uint256"
        }
      ],
      "name": "transferFrom",
      "outputs": [
        {
          "internalType": "bool",
          "name": "",
          "type": "bool"
        }
      ],
      "stateMutability": "nonpayable",
      "type": "function"
    }
  ],
  "bytecode": "0x608060405234801561001057600080fd5b506040805180820182526004808252631554d11560e21b602080840182905284518086019095529184529083015290600361004b83826100ff565b50600461005882826100ff565b5050506101be565b634e487b7160e01b600052604160045260246000fd5b600181811c9082168061008a57607f821691505b6020821081036100aa57634e487b7160e01b600052602260045260246000fd5b50919050565b601f8211156100fa57600081815260208120601f850160051c810160208610156100d75750805b601f850160051c820191505b818110156100f6578281556001016100e3565b5050505b505050565b81516001600160401b0381111561011857610118610060565b61012c816101268454610076565b846100b0565b602080601f83116001811461016157600084156101495750858301515b600019600386901b1c1916600185901b1785556100f6565b600085815260208120601f198616915b8281101561019057888601518255948401946001909101908401610171565b50858210156101ae5787850151600019600388901b60f8161c191681555b5050505050600190811b01905550565b61096e806101cd6000396000f3fe608060405234801561001057600080fd5b50600436106100a45760003560e01c806306fdde03146100a9578063095ea7b3146100c757806318160ddd146100ea57806323b872dd146100fc578063313ce5671461010f578063395093511461011e578063579158971461013157806370a082311461014657806395d89b411461016f578063a457c2d714610177578063a9059cbb1461018a578063dd62ed3e1461019d575b600080fd5b6100b16101b0565b6040516100be9190610760565b60405180910390f35b6100da6100d53660046107ca565b610242565b60405190151581526020016100be565b6002545b6040519081526020016100be565b6100da61010a3660046107f4565b61025c565b604051601281526020016100be565b6100da61012c3660046107ca565b610280565b61014461013f366004610830565b6102a2565b005b6100ee610154366004610849565b6001600160a01b031660009081526020819052604090205490565b6100b16102bb565b6100da6101853660046107ca565b6102ca565b6100da6101983660046107ca565b61034a565b6100ee6101ab36600461086b565b610358565b6060600380546101bf9061089e565b80601f01602080910402602001604051908101604052809291908181526020018280546101eb9061089e565b80156102385780601f1061020d57610100808354040283529160200191610238565b820191906000526020600020905b81548152906001019060200180831161021b57829003601f168201915b5050505050905090565b600033610250818585610383565b60019150505b92915050565b60003361026a8582856104a7565b610275858585610521565b506001949350505050565b6000336102508185856102938383610358565b61029d91906108ee565b610383565b6102b8336102b383620f4240610901565b6106b3565b50565b6060600480546101bf9061089e565b600033816102d88286610358565b90508381101561033d5760405162461bcd60e51b815260206004820152602560248201527f45524332303a2064656372656173656420616c6c6f77616e63652062656c6f77604482015264207a65726f60d81b60648201526084015b60405180910390fd5b6102758286868403610383565b600033610250818585610521565b6001600160a01b03918216600090815260016020908152604080832093909416825291909152205490565b6001600160a01b0383166103e55760405162461bcd60e51b8152602060048201526024808201527f45524332303a20617070726f76652066726f6d20746865207a65726f206164646044820152637265737360e01b6064820152608401610334565b6001600160a01b0382166104465760405162461bcd60e51b815260206004820152602260248201527f45524332303a20617070726f766520746f20746865207a65726f206164647265604482015261737360f01b6064820152608401610334565b6001600160a01b0383811660008181526001602090815260408083209487168084529482529182902085905590518481527f8c5be1e5ebec7d5bd14f71427d1e84f3dd0314c0f7b2291e5b200ac8c7c3b925910160405180910390a3505050565b60006104b38484610358565b9050600019811461051b578181101561050e5760405162461bcd60e51b815260206004820152601d60248201527f45524332303a20696e73756666696369656e7420616c6c6f77616e63650000006044820152606401610334565b61051b8484848403610383565b50505050565b6001600160a01b0383166105855760405162461bcd60e51b815260206004820152602560248201527f45524332303a207472616e736665722066726f6d20746865207a65726f206164604482015264647265737360d81b6064820152608401610334565b6001600160a01b0382166105e75760405162461bcd60e51b815260206004820152602360248201527f45524332303a207472616e7366657220746f20746865207a65726f206164647260448201526265737360e81b6064820152608401610334565b6001600160a01b0383166000908152602081905260409020548181101561065f5760405162461bcd60e51b815260206004820152602660248201527f45524332303a207472616e7366657220616d6f756e7420657863656564732062604482015265616c616e636560d01b6064820152608401610334565b6001600160a01b0384811660008181526020818152604080832087870390559387168083529184902080548701905592518581529092600080516020610919833981519152910160405180910390a361051b565b6001600160a01b0382166107095760405162461bcd60e51b815260206004820152601f60248201527f45524332303a206d696e7420746f20746865207a65726f2061646472657373006044820152606401610334565b806002600082825461071b91906108ee565b90915550506001600160a01b03821660008181526020818152604080832080548601905551848152600080516020610919833981519152910160405180910390a35050565b600060208083528351808285015260005b8181101561078d57858101830151858201604001528201610771565b506000604082860101526040601f19601f8301168501019250505092915050565b80356001600160a01b03811681146107c557600080fd5b919050565b600080604083850312156107dd57600080fd5b6107e6836107ae565b946020939093013593505050565b60008060006060848603121561080957600080fd5b610812846107ae565b9250610820602085016107ae565b9150604084013590509250925092565b60006020828403121561084257600080fd5b5035919050565b60006020828403121561085b57600080fd5b610864826107ae565b9392505050565b6000806040838503121561087e57600080fd5b610887836107ae565b9150610895602084016107ae565b90509250929050565b600181811c908216806108b257607f821691505b6020821081036108d257634e487b7160e01b600052602260045260246000fd5b50919050565b634e487b7160e01b600052601160045260246000fd5b80820180821115610256576102566108d8565b8082028115828204841417610256576102566108d856feddf252ad1be2c89b69c2b068fc378daa952ba7f163c4a11628f55a4df523b3efa2646970667358221220242048b48d8a127ae251af8601801a821699be7b391e03f16c7eb648642b565164736f6c63430008110033",
  "linkReferences": {},
  "deployedLinkReferences": {}
}