{
  "_format": "hh-sol-artifact-1",
  "contractName": "PassiveIncomeProperty",
  "sourceName": "contracts/PassiveIncomeProperty.sol",
  "abi": [
    {
      "inputs": [
        {
          "internalType": "string",
          "name": "name",
          "type": "string"
        },
        {
          "internalType": "string",
          "name": "symbol",
          "type": "string"
        },
        {
          "internalType": "uint256",
          "name": "_totalSupply",
          "type": "uint256"
        },
        {
          "internalType": "uint256",
          "name": "_pricePerToken",
          "type": "uint256"
        },
        {
          "internalType": "uint256",
          "name": "_collateralizedValue",
          "type": "uint256"
        },
        {
          "internalType": "uint256",
          "name": "_interestRate",
          "type": "uint256"
        },
        {
          "internalType": "address",
          "name": "paymentTokenAddress",
          "type": "address"
        }
      ],
      "stateMutability": "nonpayable",
      "type": "constructor"
    },
    {
      "anonymous": false,
      "inputs": [
        {
          "indexed": true,
          "internalType": "address",
          "name": "owner",
          "type": "address"
        },
        {
          "indexed": true,
          "internalType": "address",
          "name": "approved",
          "type": "address"
        },
        {
          "indexed": true,
          "internalType": "uint256",
          "name": "tokenId",
          "type": "uint256"
        }
      ],
      "name": "Approval",
      "type": "event"
    },
    {
      "anonymous": false,
      "inputs": [
        {
          "indexed": true,
          "internalType": "address",
          "name": "owner",
          "type": "address"
        },
        {
          "indexed": true,
          "internalType": "address",
          "name": "operator",
          "type": "address"
        },
        {
          "indexed": false,
          "internalType": "bool",
          "name": "approved",
          "type": "bool"
        }
      ],
      "name": "ApprovalForAll",
      "type": "event"
    },
    {
      "anonymous": false,
      "inputs": [
        {
          "indexed": true,
          "internalType": "address",
          "name": "previousOwner",
          "type": "address"
        },
        {
          "indexed": true,
          "internalType": "address",
          "name": "newOwner",
          "type": "address"
        }
      ],
      "name": "OwnershipTransferred",
      "type": "event"
    },
    {
      "anonymous": false,
      "inputs": [
        {
          "indexed": true,
          "internalType": "address",
          "name": "from",
          "type": "address"
        },
        {
          "indexed": true,
          "internalType": "address",
          "name": "to",
          "type": "address"
        },
        {
          "indexed": true,
          "internalType": "uint256",
          "name": "tokenId",
          "type": "uint256"
        }
      ],
      "name": "Transfer",
      "type": "event"
    },
    {
      "inputs": [
        {
          "internalType": "address",
          "name": "to",
          "type": "address"
        },
        {
          "internalType": "uint256",
          "name": "tokenId",
          "type": "uint256"
        }
      ],
      "name": "approve",
      "outputs": [],
      "stateMutability": "nonpayable",
      "type": "function"
    },
    {
      "inputs": [
        {
          "internalType": "address",
          "name": "owner",
          "type": "address"
        }
      ],
      "name": "balanceOf",
      "outputs": [
        {
          "internalType": "uint256",
          "name": "",
          "type": "uint256"
        }
      ],
      "stateMutability": "view",
      "type": "function"
    },
    {
      "inputs": [],
      "name": "collateralizedValue",
      "outputs": [
        {
          "internalType": "uint256",
          "name": "",
          "type": "uint256"
        }
      ],
      "stateMutability": "view",
      "type": "function"
    },
    {
      "inputs": [],
      "name": "currentToken",
      "outputs": [
        {
          "internalType": "uint256",
          "name": "",
          "type": "uint256"
        }
      ],
      "stateMutability": "view",
      "type": "function"
    },
    {
      "inputs": [
        {
          "internalType": "uint256",
          "name": "tokenId",
          "type": "uint256"
        }
      ],
      "name": "getApproved",
      "outputs": [
        {
          "internalType": "address",
          "name": "",
          "type": "address"
        }
      ],
      "stateMutability": "view",
      "type": "function"
    },
    {
      "inputs": [],
      "name": "interestRate",
      "outputs": [
        {
          "internalType": "uint256",
          "name": "",
          "type": "uint256"
        }
      ],
      "stateMutability": "view",
      "type": "function"
    },
    {
      "inputs": [],
      "name": "isActive",
      "outputs": [
        {
          "internalType": "bool",
          "name": "",
          "type": "bool"
        }
      ],
      "stateMutability": "view",
      "type": "function"
    },
    {
      "inputs": [
        {
          "internalType": "address",
          "name": "owner",
          "type": "address"
        },
        {
          "internalType": "address",
          "name": "operator",
          "type": "address"
        }
      ],
      "name": "isApprovedForAll",
      "outputs": [
        {
          "internalType": "bool",
          "name": "",
          "type": "bool"
        }
      ],
      "stateMutability": "view",
      "type": "function"
    },
    {
      "inputs": [
        {
          "internalType": "uint256",
          "name": "",
          "type": "uint256"
        }
      ],
      "name": "lastClaimed",
      "outputs": [
        {
          "internalType": "uint256",
          "name": "",
          "type": "uint256"
        }
      ],
      "stateMutability": "view",
      "type": "function"
    },
    {
      "inputs": [
        {
          "internalType": "uint256",
          "name": "quantity",
          "type": "uint256"
        }
      ],
      "name": "mint",
      "outputs": [],
      "stateMutability": "nonpayable",
      "type": "function"
    },
    {
      "inputs": [],
      "name": "name",
      "outputs": [
        {
          "internalType": "string",
          "name": "",
          "type": "string"
        }
      ],
      "stateMutability": "view",
      "type": "function"
    },
    {
      "inputs": [],
      "name": "owner",
      "outputs": [
        {
          "internalType": "address",
          "name": "",
          "type": "address"
        }
      ],
      "stateMutability": "view",
      "type": "function"
    },
    {
      "inputs": [
        {
          "internalType": "uint256",
          "name": "tokenId",
          "type": "uint256"
        }
      ],
      "name": "ownerOf",
      "outputs": [
        {
          "internalType": "address",
          "name": "",
          "type": "address"
        }
      ],
      "stateMutability": "view",
      "type": "function"
    },
    {
      "inputs": [],
      "name": "paymentToken",
      "outputs": [
        {
          "internalType": "contract IERC20",
          "name": "",
          "type": "address"
        }
      ],
      "stateMutability": "view",
      "type": "function"
    },
    {
      "inputs": [],
      "name": "pricePerToken",
      "outputs": [
        {
          "internalType": "uint256",
          "name": "",
          "type": "uint256"
        }
      ],
      "stateMutability": "view",
      "type": "function"
    },
    {
      "inputs": [],
      "name": "renounceOwnership",
      "outputs": [],
      "stateMutability": "nonpayable",
      "type": "function"
    },
    {
      "inputs": [
        {
          "internalType": "uint256",
          "name": "amount",
          "type": "uint256"
        }
      ],
      "name": "repayLoan",
      "outputs": [],
      "stateMutability": "nonpayable",
      "type": "function"
    },
    {
      "inputs": [
        {
          "internalType": "address",
          "name": "from",
          "type": "address"
        },
        {
          "internalType": "address",
          "name": "to",
          "type": "address"
        },
        {
          "internalType": "uint256",
          "name": "tokenId",
          "type": "uint256"
        }
      ],
      "name": "safeTransferFrom",
      "outputs": [],
      "stateMutability": "nonpayable",
      "type": "function"
    },
    {
      "inputs": [
        {
          "internalType": "address",
          "name": "from",
          "type": "address"
        },
        {
          "internalType": "address",
          "name": "to",
          "type": "address"
        },
        {
          "internalType": "uint256",
          "name": "tokenId",
          "type": "uint256"
        },
        {
          "internalType": "bytes",
          "name": "data",
          "type": "bytes"
        }
      ],
      "name": "safeTransferFrom",
      "outputs": [],
      "stateMutability": "nonpayable",
      "type": "function"
    },
    {
      "inputs": [],
      "name": "setActive",
      "outputs": [],
      "stateMutability": "nonpayable",
      "type": "function"
    },
    {
      "inputs": [
        {
          "internalType": "address",
          "name": "operator",
          "type": "address"
        },
        {
          "internalType": "bool",
          "name": "approved",
          "type": "bool"
        }
      ],
      "name": "setApprovalForAll",
      "outputs": [],
      "stateMutability": "nonpayable",
      "type": "function"
    },
    {
      "inputs": [],
      "name": "setInactive",
      "outputs": [],
      "stateMutability": "nonpayable",
      "type": "function"
    },
    {
      "inputs": [
        {
          "internalType": "uint256",
          "name": "tokenId",
          "type": "uint256"
        },
        {
          "internalType": "uint256",
          "name": "timestamp",
          "type": "uint256"
        }
      ],
      "name": "setLastClaimed",
      "outputs": [],
      "stateMutability": "nonpayable",
      "type": "function"
    },
    {
      "inputs": [],
      "name": "startTime",
      "outputs": [
        {
          "internalType": "uint256",
          "name": "",
          "type": "uint256"
        }
      ],
      "stateMutability": "view",
      "type": "function"
    },
    {
      "inputs": [
        {
          "internalType": "bytes4",
          "name": "interfaceId",
          "type": "bytes4"
        }
      ],
      "name": "supportsInterface",
      "outputs": [
        {
          "internalType": "bool",
          "name": "",
          "type": "bool"
        }
      ],
      "stateMutability": "view",
      "type": "function"
    },
    {
      "inputs": [],
      "name": "symbol",
      "outputs": [
        {
          "internalType": "string",
          "name": "",
          "type": "string"
        }
      ],
      "stateMutability": "view",
      "type": "function"
    },
    {
      "inputs": [
        {
          "internalType": "uint256",
          "name": "tokenId",
          "type": "uint256"
        }
      ],
      "name": "tokenURI",
      "outputs": [
        {
          "internalType": "string",
          "name": "",
          "type": "string"
        }
      ],
      "stateMutability": "view",
      "type": "function"
    },
    {
      "inputs": [],
      "name": "totalSupply",
      "outputs": [
        {
          "internalType": "uint256",
          "name": "",
          "type": "uint256"
        }
      ],
      "stateMutability": "view",
      "type": "function"
    },
    {
      "inputs": [
        {
          "internalType": "address",
          "name": "from",
          "type": "address"
        },
        {
          "internalType": "address",
          "name": "to",
          "type": "address"
        },
        {
          "internalType": "uint256",
          "name": "tokenId",
          "type": "uint256"
        }
      ],
      "name": "transferFrom",
      "outputs": [],
      "stateMutability": "nonpayable",
      "type": "function"
    },
    {
      "inputs": [
        {
          "internalType": "address",
          "name": "newOwner",
          "type": "address"
        }
      ],
      "name": "transferOwnership",
      "outputs": [],
      "stateMutability": "nonpayable",
      "type": "function"
    },
    {
      "inputs": [],
      "name": "unpaidAmount",
      "outputs": [
        {
          "internalType": "uint256",
          "name": "",
          "type": "uint256"
        }
      ],
      "stateMutability": "view",
      "type": "function"
    },
    {
      "inputs": [
        {
          "internalType": "address",
          "name": "to",
          "type": "address"
        }
      ],
      "name": "withdraw",
      "outputs": [],
      "stateMutability": "nonpayable",
      "type": "function"
    }
  ],
  "bytecode": "0x6101006040523480156200001257600080fd5b50604051620020d9380380620020d98339810160408190526200003591620001cf565b868660006200004583826200030f565b5060016200005482826200030f565b505050620000716200006b620000b460201b60201c565b620000b8565b60809490945260a09290925260c081905260e091909152600880546001600160a01b0319166001600160a01b0390931692909217909155600b5550620003db9050565b3390565b600680546001600160a01b038381166001600160a01b0319831681179093556040519116919082907f8be0079c531659141344cd1fd0a4f28419497f9722a3daafe3b4186f6b6457e090600090a35050565b634e487b7160e01b600052604160045260246000fd5b600082601f8301126200013257600080fd5b81516001600160401b03808211156200014f576200014f6200010a565b604051601f8301601f19908116603f011681019082821181831017156200017a576200017a6200010a565b816040528381526020925086838588010111156200019757600080fd5b600091505b83821015620001bb57858201830151818301840152908201906200019c565b600093810190920192909252949350505050565b600080600080600080600060e0888a031215620001eb57600080fd5b87516001600160401b03808211156200020357600080fd5b620002118b838c0162000120565b985060208a01519150808211156200022857600080fd5b50620002378a828b0162000120565b96505060408801519450606088015193506080880151925060a0880151915060c088015160018060a01b03811681146200027057600080fd5b8091505092959891949750929550565b600181811c908216806200029557607f821691505b602082108103620002b657634e487b7160e01b600052602260045260246000fd5b50919050565b601f8211156200030a57600081815260208120601f850160051c81016020861015620002e55750805b601f850160051c820191505b818110156200030657828155600101620002f1565b5050505b505050565b81516001600160401b038111156200032b576200032b6200010a565b62000343816200033c845462000280565b84620002bc565b602080601f8311600181146200037b5760008415620003625750858301515b600019600386901b1c1916600185901b17855562000306565b600085815260208120601f198616915b82811015620003ac578886015182559484019460019091019084016200038b565b5085821015620003cb5787850151600019600388901b60f8161c191681555b5050505050600190811b01905550565b60805160a05160c05160e051611caf6200042a6000396000610351015260006101c701526000818161032a01526109d30152600081816102440152818161097b0152610acd0152611caf6000f3fe608060405234801561001057600080fd5b50600436106101805760003560e01c806301ffc9a71461018557806306fdde03146101ad578063077433b6146101c2578063081812fc146101f7578063095ea7b314610217578063162a9bb61461022c57806318160ddd1461023f57806322f3e2d41461026657806323b872dd1461027a5780633013ce291461028d57806342842e0e146102a057806351cff8d9146102b357806352049ace146102c65780636352211e146102e657806370a08231146102f9578063715018a61461030c578063760a8c2a1461031457806378e979251461031c5780637b1b1de6146103255780637c3a00fd1461034c578063836c081d146103735780638da5cb5b1461037c57806395d89b4114610384578063a0712d681461038c578063a22cb4651461039f578063ab7b1c89146103b2578063b88d4fde146103c5578063c87b56dd146103d8578063e985e9c5146103eb578063f1b9ee24146103fe578063f2fde38b14610406578063fde2130414610419575b600080fd5b61019861019336600461167c565b610422565b60405190151581526020015b60405180910390f35b6101b5610474565b6040516101a491906116e9565b6101e97f000000000000000000000000000000000000000000000000000000000000000081565b6040519081526020016101a4565b61020a6102053660046116fc565b610506565b6040516101a49190611715565b61022a610225366004611745565b61052d565b005b61022a61023a36600461176f565b610647565b6101e97f000000000000000000000000000000000000000000000000000000000000000081565b60085461019890600160a01b900460ff1681565b61022a610288366004611791565b610661565b60085461020a906001600160a01b031681565b61022a6102ae366004611791565b610692565b61022a6102c13660046117cd565b6106ad565b6101e96102d43660046116fc565b600a6020526000908152604090205481565b61020a6102f43660046116fc565b610804565b6101e96103073660046117cd565b610838565b61022a6108be565b61022a6108d2565b6101e960095481565b6101e97f000000000000000000000000000000000000000000000000000000000000000081565b6101e97f000000000000000000000000000000000000000000000000000000000000000081565b6101e960075481565b61020a61095b565b6101b561096a565b61022a61039a3660046116fc565b610979565b61022a6103ad3660046117f6565b610b44565b61022a6103c03660046116fc565b610b4f565b61022a6103d3366004611843565b610cbb565b6101b56103e63660046116fc565b610cf3565b6101986103f936600461191e565b610d67565b61022a610d95565b61022a6104143660046117cd565b610e15565b6101e9600b5481565b60006001600160e01b031982166380ac58cd60e01b148061045357506001600160e01b03198216635b5e139f60e01b145b8061046e57506301ffc9a760e01b6001600160e01b03198316145b92915050565b60606000805461048390611951565b80601f01602080910402602001604051908101604052809291908181526020018280546104af90611951565b80156104fc5780601f106104d1576101008083540402835291602001916104fc565b820191906000526020600020905b8154815290600101906020018083116104df57829003601f168201915b5050505050905090565b600061051182610e8b565b506000908152600460205260409020546001600160a01b031690565b600061053882610804565b9050806001600160a01b0316836001600160a01b0316036105aa5760405162461bcd60e51b815260206004820152602160248201527f4552433732313a20617070726f76616c20746f2063757272656e74206f776e656044820152603960f91b60648201526084015b60405180910390fd5b336001600160a01b03821614806105c657506105c68133610d67565b6106385760405162461bcd60e51b815260206004820152603d60248201527f4552433732313a20617070726f76652063616c6c6572206973206e6f7420746f60448201527f6b656e206f776e6572206f7220617070726f76656420666f7220616c6c00000060648201526084016105a1565b6106428383610eb0565b505050565b61064f610f1e565b6000918252600a602052604090912055565b61066b3382610f7d565b6106875760405162461bcd60e51b81526004016105a19061198b565b610642838383610fdc565b61064283838360405180602001604052806000815250610cbb565b6106b5610f1e565b6008546040516370a0823160e01b81526000916001600160a01b0316906370a08231906106e6903090600401611715565b602060405180830381865afa158015610703573d6000803e3d6000fd5b505050506040513d601f19601f8201168201806040525081019061072791906119d8565b90506000811161078d5760405162461bcd60e51b815260206004820152602b60248201527f50617373697665496e636f6d6550726f70657274793a206e6f2066756e64732060448201526a746f20776974686472617760a81b60648201526084016105a1565b60085460405163a9059cbb60e01b81526001600160a01b038481166004830152602482018490529091169063a9059cbb906044016020604051808303816000875af11580156107e0573d6000803e3d6000fd5b505050506040513d601f19601f8201168201806040525081019061064291906119f1565b6000806108108361112e565b90506001600160a01b03811661046e5760405162461bcd60e51b81526004016105a190611a0e565b60006001600160a01b0382166108a25760405162461bcd60e51b815260206004820152602960248201527f4552433732313a2061646472657373207a65726f206973206e6f7420612076616044820152683634b21037bbb732b960b91b60648201526084016105a1565b506001600160a01b031660009081526003602052604090205490565b6108c6610f1e565b6108d06000611149565b565b6108da610f1e565b600854600160a01b900460ff16156109425760405162461bcd60e51b815260206004820152602560248201527f50617373697665496e636f6d6550726f70657274793a20616c72656164792061604482015264637469766560d81b60648201526084016105a1565b6008805460ff60a01b1916600160a01b17905542600955565b6006546001600160a01b031690565b60606001805461048390611951565b7f0000000000000000000000000000000000000000000000000000000000000000600754106109ba5760405162461bcd60e51b81526004016105a190611a40565b6008546001600160a01b03166323b872dd33306109f7857f0000000000000000000000000000000000000000000000000000000000000000611a9c565b610a0490620f4240611a9c565b6040518463ffffffff1660e01b8152600401610a2293929190611ab3565b6020604051808303816000875af1158015610a41573d6000803e3d6000fd5b505050506040513d601f19601f82011682018060405250810190610a6591906119f1565b610ac05760405162461bcd60e51b815260206004820152602660248201527f50617373697665496e636f6d6550726f70657274793a2070757263686173652060448201526519985a5b195960d21b60648201526084016105a1565b60005b81811015610b40577f000000000000000000000000000000000000000000000000000000000000000060075410610b0c5760405162461bcd60e51b81526004016105a190611a40565b610b183360075461119b565b60078054906000610b2883611ad7565b91905055508080610b3890611ad7565b915050610ac3565b5050565b610b403383836111b5565b600b54811115610bac5760405162461bcd60e51b815260206004820152602260248201527f50617373697665496e636f6d6550726f70657274793a206f7665727061796d656044820152611b9d60f21b60648201526084016105a1565b6008546001600160a01b03166323b872dd3330610bcc85620f4240611a9c565b6040518463ffffffff1660e01b8152600401610bea93929190611ab3565b6020604051808303816000875af1158015610c09573d6000803e3d6000fd5b505050506040513d601f19601f82011682018060405250810190610c2d91906119f1565b610c895760405162461bcd60e51b815260206004820152602760248201527f50617373697665496e636f6d6550726f70657274793a2072657061796d656e746044820152660819985a5b195960ca1b60648201526084016105a1565b80600b6000828254610c9b9190611af0565b9091555050600b54600003610cb8576008805460ff60a01b191690555b50565b610cc53383610f7d565b610ce15760405162461bcd60e51b81526004016105a19061198b565b610ced8484848461127f565b50505050565b6060610cfe82610e8b565b6000610d1560408051602081019091526000815290565b90506000815111610d355760405180602001604052806000815250610d60565b80610d3f846112b2565b604051602001610d50929190611b03565b6040516020818303038152906040525b9392505050565b6001600160a01b03918216600090815260056020908152604080832093909416825291909152205460ff1690565b610d9d610f1e565b600854600160a01b900460ff16610e065760405162461bcd60e51b815260206004820152602760248201527f50617373697665496e636f6d6550726f70657274793a20616c726561647920696044820152666e61637469766560c81b60648201526084016105a1565b6008805460ff60a01b19169055565b610e1d610f1e565b6001600160a01b038116610e825760405162461bcd60e51b815260206004820152602660248201527f4f776e61626c653a206e6577206f776e657220697320746865207a65726f206160448201526564647265737360d01b60648201526084016105a1565b610cb881611149565b610e9481611344565b610cb85760405162461bcd60e51b81526004016105a190611a0e565b600081815260046020526040902080546001600160a01b0319166001600160a01b0384169081179091558190610ee582610804565b6001600160a01b03167f8c5be1e5ebec7d5bd14f71427d1e84f3dd0314c0f7b2291e5b200ac8c7c3b92560405160405180910390a45050565b33610f2761095b565b6001600160a01b0316146108d05760405162461bcd60e51b815260206004820181905260248201527f4f776e61626c653a2063616c6c6572206973206e6f7420746865206f776e657260448201526064016105a1565b600080610f8983610804565b9050806001600160a01b0316846001600160a01b03161480610fb05750610fb08185610d67565b80610fd45750836001600160a01b0316610fc984610506565b6001600160a01b0316145b949350505050565b826001600160a01b0316610fef82610804565b6001600160a01b0316146110155760405162461bcd60e51b81526004016105a190611b32565b6001600160a01b0382166110775760405162461bcd60e51b8152602060048201526024808201527f4552433732313a207472616e7366657220746f20746865207a65726f206164646044820152637265737360e01b60648201526084016105a1565b826001600160a01b031661108a82610804565b6001600160a01b0316146110b05760405162461bcd60e51b81526004016105a190611b32565b600081815260046020908152604080832080546001600160a01b03199081169091556001600160a01b038781168086526003855283862080546000190190559087168086528386208054600101905586865260029094528285208054909216841790915590518493600080516020611c5a83398151915291a4505050565b6000908152600260205260409020546001600160a01b031690565b600680546001600160a01b038381166001600160a01b0319831681179093556040519116919082907f8be0079c531659141344cd1fd0a4f28419497f9722a3daafe3b4186f6b6457e090600090a35050565b610b40828260405180602001604052806000815250611361565b816001600160a01b0316836001600160a01b0316036112125760405162461bcd60e51b815260206004820152601960248201527822a9219b99189d1030b8383937bb32903a379031b0b63632b960391b60448201526064016105a1565b6001600160a01b03838116600081815260056020908152604080832094871680845294825291829020805460ff191686151590811790915591519182527f17307eab39ab6107e8899845ad3d59bd9653f200f220920489ca2b5937696c31910160405180910390a3505050565b61128a848484610fdc565b61129684848484611394565b610ced5760405162461bcd60e51b81526004016105a190611b77565b606060006112bf83611495565b60010190506000816001600160401b038111156112de576112de61182d565b6040519080825280601f01601f191660200182016040528015611308576020820181803683370190505b5090508181016020015b600019016f181899199a1a9b1b9c1cb0b131b232b360811b600a86061a8153600a850494508461131257509392505050565b6000806113508361112e565b6001600160a01b0316141592915050565b61136b838361156b565b6113786000848484611394565b6106425760405162461bcd60e51b81526004016105a190611b77565b60006001600160a01b0384163b1561148a57604051630a85bd0160e11b81526001600160a01b0385169063150b7a02906113d8903390899088908890600401611bc9565b6020604051808303816000875af1925050508015611413575060408051601f3d908101601f1916820190925261141091810190611c06565b60015b611470573d808015611441576040519150601f19603f3d011682016040523d82523d6000602084013e611446565b606091505b5080516000036114685760405162461bcd60e51b81526004016105a190611b77565b805181602001fd5b6001600160e01b031916630a85bd0160e11b149050610fd4565b506001949350505050565b60008072184f03e93ff9f4daa797ed6e38ed64bf6a1f0160401b83106114d45772184f03e93ff9f4daa797ed6e38ed64bf6a1f0160401b830492506040015b6904ee2d6d415b85acef8160201b83106114fe576904ee2d6d415b85acef8160201b830492506020015b662386f26fc10000831061151c57662386f26fc10000830492506010015b6305f5e1008310611534576305f5e100830492506008015b612710831061154857612710830492506004015b6064831061155a576064830492506002015b600a831061046e5760010192915050565b6001600160a01b0382166115c15760405162461bcd60e51b815260206004820181905260248201527f4552433732313a206d696e7420746f20746865207a65726f206164647265737360448201526064016105a1565b6115ca81611344565b156115e75760405162461bcd60e51b81526004016105a190611c23565b6115f081611344565b1561160d5760405162461bcd60e51b81526004016105a190611c23565b6001600160a01b038216600081815260036020908152604080832080546001019055848352600290915280822080546001600160a01b031916841790555183929190600080516020611c5a833981519152908290a45050565b6001600160e01b031981168114610cb857600080fd5b60006020828403121561168e57600080fd5b8135610d6081611666565b60005b838110156116b457818101518382015260200161169c565b50506000910152565b600081518084526116d5816020860160208601611699565b601f01601f19169290920160200192915050565b602081526000610d6060208301846116bd565b60006020828403121561170e57600080fd5b5035919050565b6001600160a01b0391909116815260200190565b80356001600160a01b038116811461174057600080fd5b919050565b6000806040838503121561175857600080fd5b61176183611729565b946020939093013593505050565b6000806040838503121561178257600080fd5b50508035926020909101359150565b6000806000606084860312156117a657600080fd5b6117af84611729565b92506117bd60208501611729565b9150604084013590509250925092565b6000602082840312156117df57600080fd5b610d6082611729565b8015158114610cb857600080fd5b6000806040838503121561180957600080fd5b61181283611729565b91506020830135611822816117e8565b809150509250929050565b634e487b7160e01b600052604160045260246000fd5b6000806000806080858703121561185957600080fd5b61186285611729565b935061187060208601611729565b92506040850135915060608501356001600160401b038082111561189357600080fd5b818701915087601f8301126118a757600080fd5b8135818111156118b9576118b961182d565b604051601f8201601f19908116603f011681019083821181831017156118e1576118e161182d565b816040528281528a60208487010111156118fa57600080fd5b82602086016020830137600060208483010152809550505050505092959194509250565b6000806040838503121561193157600080fd5b61193a83611729565b915061194860208401611729565b90509250929050565b600181811c9082168061196557607f821691505b60208210810361198557634e487b7160e01b600052602260045260246000fd5b50919050565b6020808252602d908201527f4552433732313a2063616c6c6572206973206e6f7420746f6b656e206f776e6560408201526c1c881bdc88185c1c1c9bdd9959609a1b606082015260800190565b6000602082840312156119ea57600080fd5b5051919050565b600060208284031215611a0357600080fd5b8151610d60816117e8565b602080825260189082015277115490cdcc8c4e881a5b9d985b1a59081d1bdad95b88125160421b604082015260600190565b60208082526026908201527f50617373697665496e636f6d6550726f70657274793a20746f6b656e7320736f6040820152651b19081bdd5d60d21b606082015260800190565b634e487b7160e01b600052601160045260246000fd5b808202811582820484141761046e5761046e611a86565b6001600160a01b039384168152919092166020820152604081019190915260600190565b600060018201611ae957611ae9611a86565b5060010190565b8181038181111561046e5761046e611a86565b60008351611b15818460208801611699565b835190830190611b29818360208801611699565b01949350505050565b60208082526025908201527f4552433732313a207472616e736665722066726f6d20696e636f72726563742060408201526437bbb732b960d91b606082015260800190565b60208082526032908201527f4552433732313a207472616e7366657220746f206e6f6e20455243373231526560408201527131b2b4bb32b91034b6b83632b6b2b73a32b960711b606082015260800190565b6001600160a01b0385811682528416602082015260408101839052608060608201819052600090611bfc908301846116bd565b9695505050505050565b600060208284031215611c1857600080fd5b8151610d6081611666565b6020808252601c908201527b115490cdcc8c4e881d1bdad95b88185b1c9958591e481b5a5b9d195960221b60408201526060019056feddf252ad1be2c89b69c2b068fc378daa952ba7f163c4a11628f55a4df523b3efa264697066735822122012969da34325fddbe27ec0753524a13c072e0818614cc65c172353b2a68f529b64736f6c63430008110033",
  "linkReferences": {},
  "deployedLinkReferences": {}
}