{
  "_format": "hh-sol-artifact-1",
  "contractName": "PropertyFactoryAndBank",
  "sourceName": "contracts/PropertyFactoryAndBank.sol",
  "abi": [
    {
      "inputs": [],
      "stateMutability": "nonpayable",
      "type": "constructor"
    },
    {
      "anonymous": false,
      "inputs": [
        {
          "indexed": true,
          "internalType": "address",
          "name": "propertyAddress",
          "type": "address"
        }
      ],
      "name": "CapitalRepaymentPropertyCreated",
      "type": "event"
    },
    {
      "anonymous": false,
      "inputs": [
        {
          "indexed": true,
          "internalType": "address",
          "name": "previousOwner",
          "type": "address"
        },
        {
          "indexed": true,
          "internalType": "address",
          "name": "newOwner",
          "type": "address"
        }
      ],
      "name": "OwnershipTransferred",
      "type": "event"
    },
    {
      "anonymous": false,
      "inputs": [
        {
          "indexed": true,
          "internalType": "address",
          "name": "propertyAddress",
          "type": "address"
        }
      ],
      "name": "PassiveIncomePropertyCreated",
      "type": "event"
    },
    {
      "inputs": [
        {
          "internalType": "uint256",
          "name": "",
          "type": "uint256"
        }
      ],
      "name": "capitalRepaymentProperties",
      "outputs": [
        {
          "internalType": "address",
          "name": "",
          "type": "address"
        }
      ],
      "stateMutability": "view",
      "type": "function"
    },
    {
      "inputs": [
        {
          "internalType": "address",
          "name": "propertyAddress",
          "type": "address"
        },
        {
          "internalType": "uint256[]",
          "name": "tokenIds",
          "type": "uint256[]"
        }
      ],
      "name": "claimCapitalRepayment",
      "outputs": [],
      "stateMutability": "nonpayable",
      "type": "function"
    },
    {
      "inputs": [
        {
          "internalType": "address",
          "name": "propertyAddress",
          "type": "address"
        },
        {
          "internalType": "uint256[]",
          "name": "tokenIds",
          "type": "uint256[]"
        }
      ],
      "name": "claimPassiveIncome",
      "outputs": [],
      "stateMutability": "nonpayable",
      "type": "function"
    },
    {
      "inputs": [
        {
          "internalType": "string",
          "name": "name",
          "type": "string"
        },
        {
          "internalType": "string",
          "name": "symbol",
          "type": "string"
        },
        {
          "internalType": "uint256",
          "name": "totalSupply",
          "type": "uint256"
        },
        {
          "internalType": "uint256",
          "name": "pricePerToken",
          "type": "uint256"
        },
        {
          "internalType": "uint256",
          "name": "collateralizedValue",
          "type": "uint256"
        },
        {
          "internalType": "uint256",
          "name": "durationInMonths",
          "type": "uint256"
        },
        {
          "internalType": "uint256",
          "name": "interestRate",
          "type": "uint256"
        },
        {
          "internalType": "address",
          "name": "paymentTokenAddress",
          "type": "address"
        }
      ],
      "name": "newCapitalRepaymentProperty",
      "outputs": [
        {
          "internalType": "address",
          "name": "",
          "type": "address"
        }
      ],
      "stateMutability": "nonpayable",
      "type": "function"
    },
    {
      "inputs": [
        {
          "internalType": "string",
          "name": "name",
          "type": "string"
        },
        {
          "internalType": "string",
          "name": "symbol",
          "type": "string"
        },
        {
          "internalType": "uint256",
          "name": "totalSupply",
          "type": "uint256"
        },
        {
          "internalType": "uint256",
          "name": "pricePerToken",
          "type": "uint256"
        },
        {
          "internalType": "uint256",
          "name": "collateralizedValue",
          "type": "uint256"
        },
        {
          "internalType": "uint256",
          "name": "interestRate",
          "type": "uint256"
        },
        {
          "internalType": "address",
          "name": "paymentTokenAddress",
          "type": "address"
        }
      ],
      "name": "newPassiveIncomeProperty",
      "outputs": [
        {
          "internalType": "address",
          "name": "",
          "type": "address"
        }
      ],
      "stateMutability": "nonpayable",
      "type": "function"
    },
    {
      "inputs": [],
      "name": "numCapitalRepaymentProperties",
      "outputs": [
        {
          "internalType": "uint256",
          "name": "",
          "type": "uint256"
        }
      ],
      "stateMutability": "view",
      "type": "function"
    },
    {
      "inputs": [],
      "name": "numPassiveIncomeProperties",
      "outputs": [
        {
          "internalType": "uint256",
          "name": "",
          "type": "uint256"
        }
      ],
      "stateMutability": "view",
      "type": "function"
    },
    {
      "inputs": [],
      "name": "owner",
      "outputs": [
        {
          "internalType": "address",
          "name": "",
          "type": "address"
        }
      ],
      "stateMutability": "view",
      "type": "function"
    },
    {
      "inputs": [
        {
          "internalType": "uint256",
          "name": "",
          "type": "uint256"
        }
      ],
      "name": "passiveIncomeProperties",
      "outputs": [
        {
          "internalType": "address",
          "name": "",
          "type": "address"
        }
      ],
      "stateMutability": "view",
      "type": "function"
    },
    {
      "inputs": [],
      "name": "renounceOwnership",
      "outputs": [],
      "stateMutability": "nonpayable",
      "type": "function"
    },
    {
      "inputs": [
        {
          "internalType": "address",
          "name": "propertyAddress",
          "type": "address"
        }
      ],
      "name": "setActiveCapitalRepayment",
      "outputs": [],
      "stateMutability": "nonpayable",
      "type": "function"
    },
    {
      "inputs": [
        {
          "internalType": "address",
          "name": "propertyAddress",
          "type": "address"
        }
      ],
      "name": "setActivePassiveIncome",
      "outputs": [],
      "stateMutability": "nonpayable",
      "type": "function"
    },
    {
      "inputs": [
        {
          "internalType": "address",
          "name": "propertyAddress",
          "type": "address"
        }
      ],
      "name": "setInactiveCapitalRepayment",
      "outputs": [],
      "stateMutability": "nonpayable",
      "type": "function"
    },
    {
      "inputs": [
        {
          "internalType": "address",
          "name": "propertyAddress",
          "type": "address"
        }
      ],
      "name": "setInactivePassiveIncome",
      "outputs": [],
      "stateMutability": "nonpayable",
      "type": "function"
    },
    {
      "inputs": [
        {
          "internalType": "address",
          "name": "newOwner",
          "type": "address"
        }
      ],
      "name": "transferOwnership",
      "outputs": [],
      "stateMutability": "nonpayable",
      "type": "function"
    },
    {
      "inputs": [
        {
          "internalType": "address",
          "name": "from",
          "type": "address"
        },
        {
          "internalType": "address",
          "name": "to",
          "type": "address"
        }
      ],
      "name": "withdrawFromCapitalRepaymentProperty",
      "outputs": [],
      "stateMutability": "nonpayable",
      "type": "function"
    },
    {
      "inputs": [
        {
          "internalType": "address",
          "name": "from",
          "type": "address"
        },
        {
          "internalType": "address",
          "name": "to",
          "type": "address"
        }
      ],
      "name": "withdrawFromPassiveIncomeProperty",
      "outputs": [],
      "stateMutability": "nonpayable",
      "type": "function"
    }
  ],
  "bytecode": "0x608060405234801561001057600080fd5b5061001a3361001f565b61006f565b600080546001600160a01b038381166001600160a01b0319831681178455604051919092169283917f8be0079c531659141344cd1fd0a4f28419497f9722a3daafe3b4186f6b6457e09190a35050565b615e358061007e6000396000f3fe60806040523480156200001157600080fd5b5060043610620000ee5760003560e01c80630740162114620000f35780631953c97814620001225780633c1ce75814620001395780634b76345e146200014c5780635997826314620001555780636b871e57146200016e578063715018a614620001855780637d5592d0146200016e57806387a8b62c146200018f5780638da5cb5b14620001a65780638eb3706014620001b0578063ac5767e814620001c7578063ac79b79d146200018f578063bd897a5a14620001de578063d37412c114620001f5578063f2fde38b146200020c578063f84fe3d81462000155575b600080fd5b6200010a620001043660046200179f565b62000223565b60405162000119919062001846565b60405180910390f35b6200010a620001333660046200185a565b620002fa565b6001545b60405190815260200162000119565b6002546200013d565b6200016c6200016636600462001874565b62000325565b005b6200016c6200017f366004620018b2565b62000398565b6200016c62000400565b6200016c620001a0366004620018b2565b62000418565b6200010a62000463565b6200010a620001c13660046200185a565b62000472565b6200010a620001d8366004620018d9565b62000483565b6200016c620001ef3660046200198a565b6200055c565b6200016c620002063660046200198a565b62000fc4565b6200016c6200021d366004620018b2565b6200157c565b60006200022f620015fb565b6000888888888888886040516200024690620016ae565b62000258979695949392919062001a99565b604051809103906000f08015801562000275573d6000803e3d6000fd5b506002805460018101825560009182527f405787fa12a823e0f2b7631cc41b3ba8828b3321ca811111fa75cd3aa3bb5ace0180546001600160a01b0319166001600160a01b038416908117909155604051929350917f2f65dcbee7eed8198500c63d7b528603429eab506fc47f400e6b5b288ef136fa9190a298975050505050505050565b600181815481106200030b57600080fd5b6000918252602090912001546001600160a01b0316905081565b6200032f620015fb565b6040516351cff8d960e01b815282906001600160a01b038216906351cff8d9906200035f90859060040162001846565b600060405180830381600087803b1580156200037a57600080fd5b505af11580156200038f573d6000803e3d6000fd5b50505050505050565b620003a2620015fb565b6000819050806001600160a01b031663760a8c2a6040518163ffffffff1660e01b8152600401600060405180830381600087803b158015620003e357600080fd5b505af1158015620003f8573d6000803e3d6000fd5b505050505050565b6200040a620015fb565b6200041660006200165e565b565b62000422620015fb565b6000819050806001600160a01b031663f1b9ee246040518163ffffffff1660e01b8152600401600060405180830381600087803b158015620003e357600080fd5b6000546001600160a01b031690565b600281815481106200030b57600080fd5b60006200048f620015fb565b60008989898989898989604051620004a790620016bc565b620004ba98979695949392919062001af6565b604051809103906000f080158015620004d7573d6000803e3d6000fd5b5060018054808201825560009182527fb10e2d527612073b26eecdfd717e6a320cf44b4afac2b0732d9fcbe2b7fa0cf60180546001600160a01b0319166001600160a01b038416908117909155604051929350917f84ef428dd58d8e42bd0f8568727b827617a3db6228a9009f347177ea45cc33e39190a29998505050505050505050565b6000829050806001600160a01b03166322f3e2d46040518163ffffffff1660e01b8152600401602060405180830381865afa158015620005a0573d6000803e3d6000fd5b505050506040513d601f19601f82011682018060405250810190620005c6919062001b5e565b620005ee5760405162461bcd60e51b8152600401620005e59062001b82565b60405180910390fd5b60005b825181101562000bb357336001600160a01b0316826001600160a01b0316636352211e85848151811062000629576200062962001bd0565b60200260200101516040518263ffffffff1660e01b81526004016200065091815260200190565b602060405180830381865afa1580156200066e573d6000803e3d6000fd5b505050506040513d601f19601f8201168201806040525081019062000694919062001be6565b6001600160a01b031614620006bd5760405162461bcd60e51b8152600401620005e59062001c06565b6000826001600160a01b03166352049ace858481518110620006e357620006e362001bd0565b60200260200101516040518263ffffffff1660e01b81526004016200070a91815260200190565b602060405180830381865afa15801562000728573d6000803e3d6000fd5b505050506040513d601f19601f820116820180604052508101906200074e919062001c5a565b90506000836001600160a01b031663509bc78686858151811062000776576200077662001bd0565b60200260200101516040518263ffffffff1660e01b81526004016200079d91815260200190565b602060405180830381865afa158015620007bb573d6000803e3d6000fd5b505050506040513d601f19601f82011682018060405250810190620007e1919062001c5a565b9050836001600160a01b03166367097a4b6040518163ffffffff1660e01b8152600401602060405180830381865afa15801562000822573d6000803e3d6000fd5b505050506040513d601f19601f8201168201806040525081019062000848919062001c5a565b811115620008b35760405162461bcd60e51b815260206004820152603160248201527f50726f7065727479466163746f7279416e6442616e6b3a20616c6c20636c61696044820152706d732068617665206265656e206d61646560781b6064820152608401620005e5565b8160000362000a4b5742846001600160a01b03166378e979256040518163ffffffff1660e01b8152600401602060405180830381865afa158015620008fc573d6000803e3d6000fd5b505050506040513d601f19601f8201168201806040525081019062000922919062001c5a565b620009319062278d0062001c8a565b1115620009525760405162461bcd60e51b8152600401620005e59062001ca6565b836001600160a01b031663162a9bb686858151811062000976576200097662001bd0565b6020026020010151866001600160a01b03166378e979256040518163ffffffff1660e01b8152600401602060405180830381865afa158015620009bd573d6000803e3d6000fd5b505050506040513d601f19601f82011682018060405250810190620009e3919062001c5a565b620009f29062278d0062001c8a565b6040518363ffffffff1660e01b815260040162000a1192919062001cee565b600060405180830381600087803b15801562000a2c57600080fd5b505af115801562000a41573d6000803e3d6000fd5b5050505062000b0d565b4262000a5b8362278d0062001c8a565b111562000a7c5760405162461bcd60e51b8152600401620005e59062001ca6565b836001600160a01b031663162a9bb686858151811062000aa05762000aa062001bd0565b60200260200101518462278d0062000ab9919062001c8a565b6040518363ffffffff1660e01b815260040162000ad892919062001cee565b600060405180830381600087803b15801562000af357600080fd5b505af115801562000b08573d6000803e3d6000fd5b505050505b836001600160a01b03166369cc970186858151811062000b315762000b3162001bd0565b602002602001015183600162000b48919062001c8a565b6040518363ffffffff1660e01b815260040162000b6792919062001cee565b600060405180830381600087803b15801562000b8257600080fd5b505af115801562000b97573d6000803e3d6000fd5b505050505050808062000baa9062001cfc565b915050620005f1565b506000612710826001600160a01b0316637c3a00fd6040518163ffffffff1660e01b8152600401602060405180830381865afa15801562000bf8573d6000803e3d6000fd5b505050506040513d601f19601f8201168201806040525081019062000c1e919062001c5a565b62000c2c9061271062001c8a565b836001600160a01b031663077433b66040518163ffffffff1660e01b8152600401602060405180830381865afa15801562000c6b573d6000803e3d6000fd5b505050506040513d601f19601f8201168201806040525081019062000c91919062001c5a565b62000c9d919062001d18565b62000ca9919062001d32565b90506000826001600160a01b03166318160ddd6040518163ffffffff1660e01b8152600401602060405180830381865afa15801562000cec573d6000803e3d6000fd5b505050506040513d601f19601f8201168201806040525081019062000d12919062001c5a565b836001600160a01b03166367097a4b6040518163ffffffff1660e01b8152600401602060405180830381865afa15801562000d51573d6000803e3d6000fd5b505050506040513d601f19601f8201168201806040525081019062000d77919062001c5a565b62000d83908462001d32565b62000d8f919062001d32565b9050600081855162000da2919062001d18565b62000db190620f424062001d18565b90506000846001600160a01b0316633013ce296040518163ffffffff1660e01b8152600401602060405180830381865afa15801562000df4573d6000803e3d6000fd5b505050506040513d601f19601f8201168201806040525081019062000e1a919062001be6565b905081816001600160a01b03166370a08231306040518263ffffffff1660e01b815260040162000e4b919062001846565b602060405180830381865afa15801562000e69573d6000803e3d6000fd5b505050506040513d601f19601f8201168201806040525081019062000e8f919062001c5a565b101562000ef25760405162461bcd60e51b815260206004820152602a60248201527f50726f7065727479466163746f7279416e6442616e6b3a20696e73756666696360448201526969656e742066756e647360b01b6064820152608401620005e5565b60405163a9059cbb60e01b8152336004820152602481018390526001600160a01b0382169063a9059cbb906044016020604051808303816000875af115801562000f40573d6000803e3d6000fd5b505050506040513d601f19601f8201168201806040525081019062000f66919062001b5e565b6200038f5760405162461bcd60e51b815260206004820152602760248201527f50726f7065727479466163746f7279416e6442616e6b3a207472616e736665726044820152660819985a5b195960ca1b6064820152608401620005e5565b6000829050806001600160a01b03166322f3e2d46040518163ffffffff1660e01b8152600401602060405180830381865afa15801562001008573d6000803e3d6000fd5b505050506040513d601f19601f820116820180604052508101906200102e919062001b5e565b6200104d5760405162461bcd60e51b8152600401620005e59062001b82565b60005b82518110156200141f57336001600160a01b0316826001600160a01b0316636352211e85848151811062001088576200108862001bd0565b60200260200101516040518263ffffffff1660e01b8152600401620010af91815260200190565b602060405180830381865afa158015620010cd573d6000803e3d6000fd5b505050506040513d601f19601f82011682018060405250810190620010f3919062001be6565b6001600160a01b0316146200111c5760405162461bcd60e51b8152600401620005e59062001c06565b6000826001600160a01b03166352049ace85848151811062001142576200114262001bd0565b60200260200101516040518263ffffffff1660e01b81526004016200116991815260200190565b602060405180830381865afa15801562001187573d6000803e3d6000fd5b505050506040513d601f19601f82011682018060405250810190620011ad919062001c5a565b905080600003620013475742836001600160a01b03166378e979256040518163ffffffff1660e01b8152600401602060405180830381865afa158015620011f8573d6000803e3d6000fd5b505050506040513d601f19601f820116820180604052508101906200121e919062001c5a565b6200122d9062278d0062001c8a565b11156200124e5760405162461bcd60e51b8152600401620005e59062001ca6565b826001600160a01b031663162a9bb685848151811062001272576200127262001bd0565b6020026020010151856001600160a01b03166378e979256040518163ffffffff1660e01b8152600401602060405180830381865afa158015620012b9573d6000803e3d6000fd5b505050506040513d601f19601f82011682018060405250810190620012df919062001c5a565b620012ee9062278d0062001c8a565b6040518363ffffffff1660e01b81526004016200130d92919062001cee565b600060405180830381600087803b1580156200132857600080fd5b505af11580156200133d573d6000803e3d6000fd5b5050505062001409565b42620013578262278d0062001c8a565b1115620013785760405162461bcd60e51b8152600401620005e59062001ca6565b826001600160a01b031663162a9bb68584815181106200139c576200139c62001bd0565b60200260200101518362278d00620013b5919062001c8a565b6040518363ffffffff1660e01b8152600401620013d492919062001cee565b600060405180830381600087803b158015620013ef57600080fd5b505af115801562001404573d6000803e3d6000fd5b505050505b5080620014168162001cfc565b91505062001050565b506000612710826001600160a01b0316637c3a00fd6040518163ffffffff1660e01b8152600401602060405180830381865afa15801562001464573d6000803e3d6000fd5b505050506040513d601f19601f820116820180604052508101906200148a919062001c5a565b836001600160a01b031663077433b66040518163ffffffff1660e01b8152600401602060405180830381865afa158015620014c9573d6000803e3d6000fd5b505050506040513d601f19601f82011682018060405250810190620014ef919062001c5a565b620014fb919062001d18565b62001507919062001d32565b90506000826001600160a01b03166318160ddd6040518163ffffffff1660e01b8152600401602060405180830381865afa1580156200154a573d6000803e3d6000fd5b505050506040513d601f19601f8201168201806040525081019062001570919062001c5a565b62000d8f908362001d32565b62001586620015fb565b6001600160a01b038116620015ed5760405162461bcd60e51b815260206004820152602660248201527f4f776e61626c653a206e6577206f776e657220697320746865207a65726f206160448201526564647265737360d01b6064820152608401620005e5565b620015f8816200165e565b50565b336200160662000463565b6001600160a01b031614620004165760405162461bcd60e51b815260206004820181905260248201527f4f776e61626c653a2063616c6c6572206973206e6f7420746865206f776e65726044820152606401620005e5565b600080546001600160a01b038381166001600160a01b0319831681178455604051919092169283917f8be0079c531659141344cd1fd0a4f28419497f9722a3daafe3b4186f6b6457e09190a35050565b6120d98062001d5683390190565b611fd18062003e2f83390190565b634e487b7160e01b600052604160045260246000fd5b604051601f8201601f191681016001600160401b03811182821017156200170b576200170b620016ca565b604052919050565b600082601f8301126200172557600080fd5b81356001600160401b03811115620017415762001741620016ca565b62001756601f8201601f1916602001620016e0565b8181528460208386010111156200176c57600080fd5b816020850160208301376000918101602001919091529392505050565b6001600160a01b0381168114620015f857600080fd5b600080600080600080600060e0888a031215620017bb57600080fd5b87356001600160401b0380821115620017d357600080fd5b620017e18b838c0162001713565b985060208a0135915080821115620017f857600080fd5b50620018078a828b0162001713565b96505060408801359450606088013593506080880135925060a0880135915060c0880135620018368162001789565b8091505092959891949750929550565b6001600160a01b0391909116815260200190565b6000602082840312156200186d57600080fd5b5035919050565b600080604083850312156200188857600080fd5b8235620018958162001789565b91506020830135620018a78162001789565b809150509250929050565b600060208284031215620018c557600080fd5b8135620018d28162001789565b9392505050565b600080600080600080600080610100898b031215620018f757600080fd5b88356001600160401b03808211156200190f57600080fd5b6200191d8c838d0162001713565b995060208b01359150808211156200193457600080fd5b50620019438b828c0162001713565b97505060408901359550606089013594506080890135935060a0890135925060c0890135915060e0890135620019798162001789565b809150509295985092959890939650565b600080604083850312156200199e57600080fd5b8235620019ab8162001789565b91506020838101356001600160401b0380821115620019c957600080fd5b818601915086601f830112620019de57600080fd5b813581811115620019f357620019f3620016ca565b8060051b915062001a06848301620016e0565b818152918301840191848101908984111562001a2157600080fd5b938501935b8385101562001a415784358252938501939085019062001a26565b8096505050505050509250929050565b6000815180845260005b8181101562001a795760208185018101518683018201520162001a5b565b506000602082860101526020601f19601f83011685010191505092915050565b60e08152600062001aae60e083018a62001a51565b828103602084015262001ac2818a62001a51565b604084019890985250506060810194909452608084019290925260a08301526001600160a01b031660c09091015292915050565b600061010080835262001b0c8184018c62001a51565b9050828103602084015262001b22818b62001a51565b604084019990995250506060810195909552608085019390935260a084019190915260c08301526001600160a01b031660e09091015292915050565b60006020828403121562001b7157600080fd5b81518015158114620018d257600080fd5b6020808252602e908201527f50726f7065727479466163746f7279416e6442616e6b3a2070726f706572747960408201526d206973206e6f742061637469766560901b606082015260800190565b634e487b7160e01b600052603260045260246000fd5b60006020828403121562001bf957600080fd5b8151620018d28162001789565b60208082526034908201527f50726f7065727479466163746f7279416e6442616e6b3a2063616c6c6572206960408201527339903737ba1037bbb732b91037b3103a37b5b2b760611b606082015260800190565b60006020828403121562001c6d57600080fd5b5051919050565b634e487b7160e01b600052601160045260246000fd5b8082018082111562001ca05762001ca062001c74565b92915050565b60208082526028908201527f50726f7065727479466163746f7279416e6442616e6b3a207061796f7574206e6040820152676f7420726561647960c01b606082015260800190565b918252602082015260400190565b60006001820162001d115762001d1162001c74565b5060010190565b808202811582820484141762001ca05762001ca062001c74565b60008262001d5057634e487b7160e01b600052601260045260246000fd5b50049056fe6101006040523480156200001257600080fd5b50604051620020d9380380620020d98339810160408190526200003591620001cf565b868660006200004583826200030f565b5060016200005482826200030f565b505050620000716200006b620000b460201b60201c565b620000b8565b60809490945260a09290925260c081905260e091909152600880546001600160a01b0319166001600160a01b0390931692909217909155600b5550620003db9050565b3390565b600680546001600160a01b038381166001600160a01b0319831681179093556040519116919082907f8be0079c531659141344cd1fd0a4f28419497f9722a3daafe3b4186f6b6457e090600090a35050565b634e487b7160e01b600052604160045260246000fd5b600082601f8301126200013257600080fd5b81516001600160401b03808211156200014f576200014f6200010a565b604051601f8301601f19908116603f011681019082821181831017156200017a576200017a6200010a565b816040528381526020925086838588010111156200019757600080fd5b600091505b83821015620001bb57858201830151818301840152908201906200019c565b600093810190920192909252949350505050565b600080600080600080600060e0888a031215620001eb57600080fd5b87516001600160401b03808211156200020357600080fd5b620002118b838c0162000120565b985060208a01519150808211156200022857600080fd5b50620002378a828b0162000120565b96505060408801519450606088015193506080880151925060a0880151915060c088015160018060a01b03811681146200027057600080fd5b8091505092959891949750929550565b600181811c908216806200029557607f821691505b602082108103620002b657634e487b7160e01b600052602260045260246000fd5b50919050565b601f8211156200030a57600081815260208120601f850160051c81016020861015620002e55750805b601f850160051c820191505b818110156200030657828155600101620002f1565b5050505b505050565b81516001600160401b038111156200032b576200032b6200010a565b62000343816200033c845462000280565b84620002bc565b602080601f8311600181146200037b5760008415620003625750858301515b600019600386901b1c1916600185901b17855562000306565b600085815260208120601f198616915b82811015620003ac578886015182559484019460019091019084016200038b565b5085821015620003cb5787850151600019600388901b60f8161c191681555b5050505050600190811b01905550565b60805160a05160c05160e051611caf6200042a6000396000610351015260006101c701526000818161032a01526109d30152600081816102440152818161097b0152610acd0152611caf6000f3fe608060405234801561001057600080fd5b50600436106101805760003560e01c806301ffc9a71461018557806306fdde03146101ad578063077433b6146101c2578063081812fc146101f7578063095ea7b314610217578063162a9bb61461022c57806318160ddd1461023f57806322f3e2d41461026657806323b872dd1461027a5780633013ce291461028d57806342842e0e146102a057806351cff8d9146102b357806352049ace146102c65780636352211e146102e657806370a08231146102f9578063715018a61461030c578063760a8c2a1461031457806378e979251461031c5780637b1b1de6146103255780637c3a00fd1461034c578063836c081d146103735780638da5cb5b1461037c57806395d89b4114610384578063a0712d681461038c578063a22cb4651461039f578063ab7b1c89146103b2578063b88d4fde146103c5578063c87b56dd146103d8578063e985e9c5146103eb578063f1b9ee24146103fe578063f2fde38b14610406578063fde2130414610419575b600080fd5b61019861019336600461167c565b610422565b60405190151581526020015b60405180910390f35b6101b5610474565b6040516101a491906116e9565b6101e97f000000000000000000000000000000000000000000000000000000000000000081565b6040519081526020016101a4565b61020a6102053660046116fc565b610506565b6040516101a49190611715565b61022a610225366004611745565b61052d565b005b61022a61023a36600461176f565b610647565b6101e97f000000000000000000000000000000000000000000000000000000000000000081565b60085461019890600160a01b900460ff1681565b61022a610288366004611791565b610661565b60085461020a906001600160a01b031681565b61022a6102ae366004611791565b610692565b61022a6102c13660046117cd565b6106ad565b6101e96102d43660046116fc565b600a6020526000908152604090205481565b61020a6102f43660046116fc565b610804565b6101e96103073660046117cd565b610838565b61022a6108be565b61022a6108d2565b6101e960095481565b6101e97f000000000000000000000000000000000000000000000000000000000000000081565b6101e97f000000000000000000000000000000000000000000000000000000000000000081565b6101e960075481565b61020a61095b565b6101b561096a565b61022a61039a3660046116fc565b610979565b61022a6103ad3660046117f6565b610b44565b61022a6103c03660046116fc565b610b4f565b61022a6103d3366004611843565b610cbb565b6101b56103e63660046116fc565b610cf3565b6101986103f936600461191e565b610d67565b61022a610d95565b61022a6104143660046117cd565b610e15565b6101e9600b5481565b60006001600160e01b031982166380ac58cd60e01b148061045357506001600160e01b03198216635b5e139f60e01b145b8061046e57506301ffc9a760e01b6001600160e01b03198316145b92915050565b60606000805461048390611951565b80601f01602080910402602001604051908101604052809291908181526020018280546104af90611951565b80156104fc5780601f106104d1576101008083540402835291602001916104fc565b820191906000526020600020905b8154815290600101906020018083116104df57829003601f168201915b5050505050905090565b600061051182610e8b565b506000908152600460205260409020546001600160a01b031690565b600061053882610804565b9050806001600160a01b0316836001600160a01b0316036105aa5760405162461bcd60e51b815260206004820152602160248201527f4552433732313a20617070726f76616c20746f2063757272656e74206f776e656044820152603960f91b60648201526084015b60405180910390fd5b336001600160a01b03821614806105c657506105c68133610d67565b6106385760405162461bcd60e51b815260206004820152603d60248201527f4552433732313a20617070726f76652063616c6c6572206973206e6f7420746f60448201527f6b656e206f776e6572206f7220617070726f76656420666f7220616c6c00000060648201526084016105a1565b6106428383610eb0565b505050565b61064f610f1e565b6000918252600a602052604090912055565b61066b3382610f7d565b6106875760405162461bcd60e51b81526004016105a19061198b565b610642838383610fdc565b61064283838360405180602001604052806000815250610cbb565b6106b5610f1e565b6008546040516370a0823160e01b81526000916001600160a01b0316906370a08231906106e6903090600401611715565b602060405180830381865afa158015610703573d6000803e3d6000fd5b505050506040513d601f19601f8201168201806040525081019061072791906119d8565b90506000811161078d5760405162461bcd60e51b815260206004820152602b60248201527f50617373697665496e636f6d6550726f70657274793a206e6f2066756e64732060448201526a746f20776974686472617760a81b60648201526084016105a1565b60085460405163a9059cbb60e01b81526001600160a01b038481166004830152602482018490529091169063a9059cbb906044016020604051808303816000875af11580156107e0573d6000803e3d6000fd5b505050506040513d601f19601f8201168201806040525081019061064291906119f1565b6000806108108361112e565b90506001600160a01b03811661046e5760405162461bcd60e51b81526004016105a190611a0e565b60006001600160a01b0382166108a25760405162461bcd60e51b815260206004820152602960248201527f4552433732313a2061646472657373207a65726f206973206e6f7420612076616044820152683634b21037bbb732b960b91b60648201526084016105a1565b506001600160a01b031660009081526003602052604090205490565b6108c6610f1e565b6108d06000611149565b565b6108da610f1e565b600854600160a01b900460ff16156109425760405162461bcd60e51b815260206004820152602560248201527f50617373697665496e636f6d6550726f70657274793a20616c72656164792061604482015264637469766560d81b60648201526084016105a1565b6008805460ff60a01b1916600160a01b17905542600955565b6006546001600160a01b031690565b60606001805461048390611951565b7f0000000000000000000000000000000000000000000000000000000000000000600754106109ba5760405162461bcd60e51b81526004016105a190611a40565b6008546001600160a01b03166323b872dd33306109f7857f0000000000000000000000000000000000000000000000000000000000000000611a9c565b610a0490620f4240611a9c565b6040518463ffffffff1660e01b8152600401610a2293929190611ab3565b6020604051808303816000875af1158015610a41573d6000803e3d6000fd5b505050506040513d601f19601f82011682018060405250810190610a6591906119f1565b610ac05760405162461bcd60e51b815260206004820152602660248201527f50617373697665496e636f6d6550726f70657274793a2070757263686173652060448201526519985a5b195960d21b60648201526084016105a1565b60005b81811015610b40577f000000000000000000000000000000000000000000000000000000000000000060075410610b0c5760405162461bcd60e51b81526004016105a190611a40565b610b183360075461119b565b60078054906000610b2883611ad7565b91905055508080610b3890611ad7565b915050610ac3565b5050565b610b403383836111b5565b600b54811115610bac5760405162461bcd60e51b815260206004820152602260248201527f50617373697665496e636f6d6550726f70657274793a206f7665727061796d656044820152611b9d60f21b60648201526084016105a1565b6008546001600160a01b03166323b872dd3330610bcc85620f4240611a9c565b6040518463ffffffff1660e01b8152600401610bea93929190611ab3565b6020604051808303816000875af1158015610c09573d6000803e3d6000fd5b505050506040513d601f19601f82011682018060405250810190610c2d91906119f1565b610c895760405162461bcd60e51b815260206004820152602760248201527f50617373697665496e636f6d6550726f70657274793a2072657061796d656e746044820152660819985a5b195960ca1b60648201526084016105a1565b80600b6000828254610c9b9190611af0565b9091555050600b54600003610cb8576008805460ff60a01b191690555b50565b610cc53383610f7d565b610ce15760405162461bcd60e51b81526004016105a19061198b565b610ced8484848461127f565b50505050565b6060610cfe82610e8b565b6000610d1560408051602081019091526000815290565b90506000815111610d355760405180602001604052806000815250610d60565b80610d3f846112b2565b604051602001610d50929190611b03565b6040516020818303038152906040525b9392505050565b6001600160a01b03918216600090815260056020908152604080832093909416825291909152205460ff1690565b610d9d610f1e565b600854600160a01b900460ff16610e065760405162461bcd60e51b815260206004820152602760248201527f50617373697665496e636f6d6550726f70657274793a20616c726561647920696044820152666e61637469766560c81b60648201526084016105a1565b6008805460ff60a01b19169055565b610e1d610f1e565b6001600160a01b038116610e825760405162461bcd60e51b815260206004820152602660248201527f4f776e61626c653a206e6577206f776e657220697320746865207a65726f206160448201526564647265737360d01b60648201526084016105a1565b610cb881611149565b610e9481611344565b610cb85760405162461bcd60e51b81526004016105a190611a0e565b600081815260046020526040902080546001600160a01b0319166001600160a01b0384169081179091558190610ee582610804565b6001600160a01b03167f8c5be1e5ebec7d5bd14f71427d1e84f3dd0314c0f7b2291e5b200ac8c7c3b92560405160405180910390a45050565b33610f2761095b565b6001600160a01b0316146108d05760405162461bcd60e51b815260206004820181905260248201527f4f776e61626c653a2063616c6c6572206973206e6f7420746865206f776e657260448201526064016105a1565b600080610f8983610804565b9050806001600160a01b0316846001600160a01b03161480610fb05750610fb08185610d67565b80610fd45750836001600160a01b0316610fc984610506565b6001600160a01b0316145b949350505050565b826001600160a01b0316610fef82610804565b6001600160a01b0316146110155760405162461bcd60e51b81526004016105a190611b32565b6001600160a01b0382166110775760405162461bcd60e51b8152602060048201526024808201527f4552433732313a207472616e7366657220746f20746865207a65726f206164646044820152637265737360e01b60648201526084016105a1565b826001600160a01b031661108a82610804565b6001600160a01b0316146110b05760405162461bcd60e51b81526004016105a190611b32565b600081815260046020908152604080832080546001600160a01b03199081169091556001600160a01b038781168086526003855283862080546000190190559087168086528386208054600101905586865260029094528285208054909216841790915590518493600080516020611c5a83398151915291a4505050565b6000908152600260205260409020546001600160a01b031690565b600680546001600160a01b038381166001600160a01b0319831681179093556040519116919082907f8be0079c531659141344cd1fd0a4f28419497f9722a3daafe3b4186f6b6457e090600090a35050565b610b40828260405180602001604052806000815250611361565b816001600160a01b0316836001600160a01b0316036112125760405162461bcd60e51b815260206004820152601960248201527822a9219b99189d1030b8383937bb32903a379031b0b63632b960391b60448201526064016105a1565b6001600160a01b03838116600081815260056020908152604080832094871680845294825291829020805460ff191686151590811790915591519182527f17307eab39ab6107e8899845ad3d59bd9653f200f220920489ca2b5937696c31910160405180910390a3505050565b61128a848484610fdc565b61129684848484611394565b610ced5760405162461bcd60e51b81526004016105a190611b77565b606060006112bf83611495565b60010190506000816001600160401b038111156112de576112de61182d565b6040519080825280601f01601f191660200182016040528015611308576020820181803683370190505b5090508181016020015b600019016f181899199a1a9b1b9c1cb0b131b232b360811b600a86061a8153600a850494508461131257509392505050565b6000806113508361112e565b6001600160a01b0316141592915050565b61136b838361156b565b6113786000848484611394565b6106425760405162461bcd60e51b81526004016105a190611b77565b60006001600160a01b0384163b1561148a57604051630a85bd0160e11b81526001600160a01b0385169063150b7a02906113d8903390899088908890600401611bc9565b6020604051808303816000875af1925050508015611413575060408051601f3d908101601f1916820190925261141091810190611c06565b60015b611470573d808015611441576040519150601f19603f3d011682016040523d82523d6000602084013e611446565b606091505b5080516000036114685760405162461bcd60e51b81526004016105a190611b77565b805181602001fd5b6001600160e01b031916630a85bd0160e11b149050610fd4565b506001949350505050565b60008072184f03e93ff9f4daa797ed6e38ed64bf6a1f0160401b83106114d45772184f03e93ff9f4daa797ed6e38ed64bf6a1f0160401b830492506040015b6904ee2d6d415b85acef8160201b83106114fe576904ee2d6d415b85acef8160201b830492506020015b662386f26fc10000831061151c57662386f26fc10000830492506010015b6305f5e1008310611534576305f5e100830492506008015b612710831061154857612710830492506004015b6064831061155a576064830492506002015b600a831061046e5760010192915050565b6001600160a01b0382166115c15760405162461bcd60e51b815260206004820181905260248201527f4552433732313a206d696e7420746f20746865207a65726f206164647265737360448201526064016105a1565b6115ca81611344565b156115e75760405162461bcd60e51b81526004016105a190611c23565b6115f081611344565b1561160d5760405162461bcd60e51b81526004016105a190611c23565b6001600160a01b038216600081815260036020908152604080832080546001019055848352600290915280822080546001600160a01b031916841790555183929190600080516020611c5a833981519152908290a45050565b6001600160e01b031981168114610cb857600080fd5b60006020828403121561168e57600080fd5b8135610d6081611666565b60005b838110156116b457818101518382015260200161169c565b50506000910152565b600081518084526116d5816020860160208601611699565b601f01601f19169290920160200192915050565b602081526000610d6060208301846116bd565b60006020828403121561170e57600080fd5b5035919050565b6001600160a01b0391909116815260200190565b80356001600160a01b038116811461174057600080fd5b919050565b6000806040838503121561175857600080fd5b61176183611729565b946020939093013593505050565b6000806040838503121561178257600080fd5b50508035926020909101359150565b6000806000606084860312156117a657600080fd5b6117af84611729565b92506117bd60208501611729565b9150604084013590509250925092565b6000602082840312156117df57600080fd5b610d6082611729565b8015158114610cb857600080fd5b6000806040838503121561180957600080fd5b61181283611729565b91506020830135611822816117e8565b809150509250929050565b634e487b7160e01b600052604160045260246000fd5b6000806000806080858703121561185957600080fd5b61186285611729565b935061187060208601611729565b92506040850135915060608501356001600160401b038082111561189357600080fd5b818701915087601f8301126118a757600080fd5b8135818111156118b9576118b961182d565b604051601f8201601f19908116603f011681019083821181831017156118e1576118e161182d565b816040528281528a60208487010111156118fa57600080fd5b82602086016020830137600060208483010152809550505050505092959194509250565b6000806040838503121561193157600080fd5b61193a83611729565b915061194860208401611729565b90509250929050565b600181811c9082168061196557607f821691505b60208210810361198557634e487b7160e01b600052602260045260246000fd5b50919050565b6020808252602d908201527f4552433732313a2063616c6c6572206973206e6f7420746f6b656e206f776e6560408201526c1c881bdc88185c1c1c9bdd9959609a1b606082015260800190565b6000602082840312156119ea57600080fd5b5051919050565b600060208284031215611a0357600080fd5b8151610d60816117e8565b602080825260189082015277115490cdcc8c4e881a5b9d985b1a59081d1bdad95b88125160421b604082015260600190565b60208082526026908201527f50617373697665496e636f6d6550726f70657274793a20746f6b656e7320736f6040820152651b19081bdd5d60d21b606082015260800190565b634e487b7160e01b600052601160045260246000fd5b808202811582820484141761046e5761046e611a86565b6001600160a01b039384168152919092166020820152604081019190915260600190565b600060018201611ae957611ae9611a86565b5060010190565b8181038181111561046e5761046e611a86565b60008351611b15818460208801611699565b835190830190611b29818360208801611699565b01949350505050565b60208082526025908201527f4552433732313a207472616e736665722066726f6d20696e636f72726563742060408201526437bbb732b960d91b606082015260800190565b60208082526032908201527f4552433732313a207472616e7366657220746f206e6f6e20455243373231526560408201527131b2b4bb32b91034b6b83632b6b2b73a32b960711b606082015260800190565b6001600160a01b0385811682528416602082015260408101839052608060608201819052600090611bfc908301846116bd565b9695505050505050565b600060208284031215611c1857600080fd5b8151610d6081611666565b6020808252601c908201527b115490cdcc8c4e881d1bdad95b88185b1c9958591e481b5a5b9d195960221b60408201526060019056feddf252ad1be2c89b69c2b068fc378daa952ba7f163c4a11628f55a4df523b3efa264697066735822122012969da34325fddbe27ec0753524a13c072e0818614cc65c172353b2a68f529b64736f6c634300081100336101206040523480156200001257600080fd5b5060405162001fd138038062001fd18339810160408190526200003591620001cd565b8787600062000045838262000317565b50600162000054828262000317565b505050620000716200006b620000b260201b60201c565b620000b6565b60809590955260a09390935260c09190915260e05261010052600880546001600160a01b0319166001600160a01b0390921691909117905550620003e39050565b3390565b600680546001600160a01b038381166001600160a01b0319831681179093556040519116919082907f8be0079c531659141344cd1fd0a4f28419497f9722a3daafe3b4186f6b6457e090600090a35050565b634e487b7160e01b600052604160045260246000fd5b600082601f8301126200013057600080fd5b81516001600160401b03808211156200014d576200014d62000108565b604051601f8301601f19908116603f0116810190828211818310171562000178576200017862000108565b816040528381526020925086838588010111156200019557600080fd5b600091505b83821015620001b957858201830151818301840152908201906200019a565b600093810190920192909252949350505050565b600080600080600080600080610100898b031215620001eb57600080fd5b88516001600160401b03808211156200020357600080fd5b620002118c838d016200011e565b995060208b01519150808211156200022857600080fd5b50620002378b828c016200011e565b97505060408901519550606089015194506080890151935060a0890151925060c0890151915060e089015160018060a01b03811681146200027757600080fd5b809150509295985092959890939650565b600181811c908216806200029d57607f821691505b602082108103620002be57634e487b7160e01b600052602260045260246000fd5b50919050565b601f8211156200031257600081815260208120601f850160051c81016020861015620002ed5750805b601f850160051c820191505b818110156200030e57828155600101620002f9565b5050505b505050565b81516001600160401b0381111562000333576200033362000108565b6200034b8162000344845462000288565b84620002c4565b602080601f8311600181146200038357600084156200036a5750858301515b600019600386901b1c1916600185901b1785556200030e565b600085815260208120601f198616915b82811015620003b45788860151825594840194600190910190840162000393565b5085821015620003d35787850151600019600388901b60f8161c191681555b5050505050600190811b01905550565b60805160a05160c05160e05161010051611b946200043d60003960006103b601526000610329015260006101d201526000818161038f0152610a2a01526000818161024f015281816109d20152610b3e0152611b946000f3fe608060405234801561001057600080fd5b506004361061018b5760003560e01c806301ffc9a71461019057806306fdde03146101b8578063077433b6146101cd578063081812fc14610202578063095ea7b314610222578063162a9bb61461023757806318160ddd1461024a57806322f3e2d41461027157806323b872dd146102855780633013ce291461029857806342842e0e146102ab578063509bc786146102be57806351cff8d9146102de57806352049ace146102f15780636352211e1461031157806367097a4b1461032457806369cc97011461034b57806370a082311461035e578063715018a614610371578063760a8c2a1461037957806378e97925146103815780637b1b1de61461038a5780637c3a00fd146103b1578063836c081d146103d85780638da5cb5b146103e157806395d89b41146103e9578063a0712d68146103f1578063a22cb46514610404578063b88d4fde14610417578063c87b56dd1461042a578063e985e9c51461043d578063f1b9ee2414610450578063f2fde38b14610458575b600080fd5b6101a361019e366004611575565b61046b565b60405190151581526020015b60405180910390f35b6101c06104bd565b6040516101af91906115e2565b6101f47f000000000000000000000000000000000000000000000000000000000000000081565b6040519081526020016101af565b6102156102103660046115f5565b61054f565b6040516101af919061160e565b61023561023036600461163e565b610576565b005b610235610245366004611668565b610690565b6101f47f000000000000000000000000000000000000000000000000000000000000000081565b6008546101a390600160a01b900460ff1681565b61023561029336600461168a565b6106aa565b600854610215906001600160a01b031681565b6102356102b936600461168a565b6106db565b6101f46102cc3660046115f5565b600b6020526000908152604090205481565b6102356102ec3660046116c6565b6106f6565b6101f46102ff3660046115f5565b600a6020526000908152604090205481565b61021561031f3660046115f5565b610850565b6101f47f000000000000000000000000000000000000000000000000000000000000000081565b610235610359366004611668565b610884565b6101f461036c3660046116c6565b61089e565b610235610924565b610235610938565b6101f460095481565b6101f47f000000000000000000000000000000000000000000000000000000000000000081565b6101f47f000000000000000000000000000000000000000000000000000000000000000081565b6101f460075481565b6102156109b2565b6101c06109c1565b6102356103ff3660046115f5565b6109d0565b6102356104123660046116ef565b610bb5565b61023561042536600461173c565b610bc0565b6101c06104383660046115f5565b610bf8565b6101a361044b366004611817565b610c6c565b610235610c9a565b6102356104663660046116c6565b610d0b565b60006001600160e01b031982166380ac58cd60e01b148061049c57506001600160e01b03198216635b5e139f60e01b145b806104b757506301ffc9a760e01b6001600160e01b03198316145b92915050565b6060600080546104cc9061184a565b80601f01602080910402602001604051908101604052809291908181526020018280546104f89061184a565b80156105455780601f1061051a57610100808354040283529160200191610545565b820191906000526020600020905b81548152906001019060200180831161052857829003601f168201915b5050505050905090565b600061055a82610d84565b506000908152600460205260409020546001600160a01b031690565b600061058182610850565b9050806001600160a01b0316836001600160a01b0316036105f35760405162461bcd60e51b815260206004820152602160248201527f4552433732313a20617070726f76616c20746f2063757272656e74206f776e656044820152603960f91b60648201526084015b60405180910390fd5b336001600160a01b038216148061060f575061060f8133610c6c565b6106815760405162461bcd60e51b815260206004820152603d60248201527f4552433732313a20617070726f76652063616c6c6572206973206e6f7420746f60448201527f6b656e206f776e6572206f7220617070726f76656420666f7220616c6c00000060648201526084016105ea565b61068b8383610da9565b505050565b610698610e17565b6000918252600a602052604090912055565b6106b43382610e76565b6106d05760405162461bcd60e51b81526004016105ea90611884565b61068b838383610ed5565b61068b83838360405180602001604052806000815250610bc0565b6106fe610e17565b6008546040516370a0823160e01b81526000916001600160a01b0316906370a082319061072f90309060040161160e565b602060405180830381865afa15801561074c573d6000803e3d6000fd5b505050506040513d601f19601f8201168201806040525081019061077091906118d1565b9050600081116107d95760405162461bcd60e51b815260206004820152602e60248201527f4361706974616c52657061796d656e7450726f70657274793a206e6f2066756e60448201526d647320746f20776974686472617760901b60648201526084016105ea565b60085460405163a9059cbb60e01b81526001600160a01b038481166004830152602482018490529091169063a9059cbb906044016020604051808303816000875af115801561082c573d6000803e3d6000fd5b505050506040513d601f19601f8201168201806040525081019061068b91906118ea565b60008061085c83611027565b90506001600160a01b0381166104b75760405162461bcd60e51b81526004016105ea90611907565b61088c610e17565b6000918252600b602052604090912055565b60006001600160a01b0382166109085760405162461bcd60e51b815260206004820152602960248201527f4552433732313a2061646472657373207a65726f206973206e6f7420612076616044820152683634b21037bbb732b960b91b60648201526084016105ea565b506001600160a01b031660009081526003602052604090205490565b61092c610e17565b6109366000611042565b565b610940610e17565b600854600160a01b900460ff16156109995760405162461bcd60e51b81526020600482015260286024820152600080516020611b1f833981519152604482015267792061637469766560c01b60648201526084016105ea565b6008805460ff60a01b1916600160a01b17905542600955565b6006546001600160a01b031690565b6060600180546104cc9061184a565b7f000000000000000000000000000000000000000000000000000000000000000060075410610a115760405162461bcd60e51b81526004016105ea90611939565b6008546001600160a01b03166323b872dd3330610a4e857f0000000000000000000000000000000000000000000000000000000000000000611998565b610a5b90620f4240611998565b6040516001600160e01b031960e086901b1681526001600160a01b03938416600482015292909116602483015260448201526064016020604051808303816000875af1158015610aaf573d6000803e3d6000fd5b505050506040513d601f19601f82011682018060405250810190610ad391906118ea565b610b315760405162461bcd60e51b815260206004820152602960248201527f4361706974616c52657061796d656e7450726f70657274793a207075726368616044820152681cd94819985a5b195960ba1b60648201526084016105ea565b60005b81811015610bb1577f000000000000000000000000000000000000000000000000000000000000000060075410610b7d5760405162461bcd60e51b81526004016105ea90611939565b610b8933600754611094565b60078054906000610b99836119af565b91905055508080610ba9906119af565b915050610b34565b5050565b610bb13383836110ae565b610bca3383610e76565b610be65760405162461bcd60e51b81526004016105ea90611884565b610bf284848484611178565b50505050565b6060610c0382610d84565b6000610c1a60408051602081019091526000815290565b90506000815111610c3a5760405180602001604052806000815250610c65565b80610c44846111ab565b604051602001610c559291906119c8565b6040516020818303038152906040525b9392505050565b6001600160a01b03918216600090815260056020908152604080832093909416825291909152205460ff1690565b610ca2610e17565b600854600160a01b900460ff16610cfc5760405162461bcd60e51b815260206004820152602a6024820152600080516020611b1f8339815191526044820152697920696e61637469766560b01b60648201526084016105ea565b6008805460ff60a01b19169055565b610d13610e17565b6001600160a01b038116610d785760405162461bcd60e51b815260206004820152602660248201527f4f776e61626c653a206e6577206f776e657220697320746865207a65726f206160448201526564647265737360d01b60648201526084016105ea565b610d8181611042565b50565b610d8d8161123d565b610d815760405162461bcd60e51b81526004016105ea90611907565b600081815260046020526040902080546001600160a01b0319166001600160a01b0384169081179091558190610dde82610850565b6001600160a01b03167f8c5be1e5ebec7d5bd14f71427d1e84f3dd0314c0f7b2291e5b200ac8c7c3b92560405160405180910390a45050565b33610e206109b2565b6001600160a01b0316146109365760405162461bcd60e51b815260206004820181905260248201527f4f776e61626c653a2063616c6c6572206973206e6f7420746865206f776e657260448201526064016105ea565b600080610e8283610850565b9050806001600160a01b0316846001600160a01b03161480610ea95750610ea98185610c6c565b80610ecd5750836001600160a01b0316610ec28461054f565b6001600160a01b0316145b949350505050565b826001600160a01b0316610ee882610850565b6001600160a01b031614610f0e5760405162461bcd60e51b81526004016105ea906119f7565b6001600160a01b038216610f705760405162461bcd60e51b8152602060048201526024808201527f4552433732313a207472616e7366657220746f20746865207a65726f206164646044820152637265737360e01b60648201526084016105ea565b826001600160a01b0316610f8382610850565b6001600160a01b031614610fa95760405162461bcd60e51b81526004016105ea906119f7565b600081815260046020908152604080832080546001600160a01b03199081169091556001600160a01b038781168086526003855283862080546000190190559087168086528386208054600101905586865260029094528285208054909216841790915590518493600080516020611b3f83398151915291a4505050565b6000908152600260205260409020546001600160a01b031690565b600680546001600160a01b038381166001600160a01b0319831681179093556040519116919082907f8be0079c531659141344cd1fd0a4f28419497f9722a3daafe3b4186f6b6457e090600090a35050565b610bb182826040518060200160405280600081525061125a565b816001600160a01b0316836001600160a01b03160361110b5760405162461bcd60e51b815260206004820152601960248201527822a9219b99189d1030b8383937bb32903a379031b0b63632b960391b60448201526064016105ea565b6001600160a01b03838116600081815260056020908152604080832094871680845294825291829020805460ff191686151590811790915591519182527f17307eab39ab6107e8899845ad3d59bd9653f200f220920489ca2b5937696c31910160405180910390a3505050565b611183848484610ed5565b61118f8484848461128d565b610bf25760405162461bcd60e51b81526004016105ea90611a3c565b606060006111b88361138e565b60010190506000816001600160401b038111156111d7576111d7611726565b6040519080825280601f01601f191660200182016040528015611201576020820181803683370190505b5090508181016020015b600019016f181899199a1a9b1b9c1cb0b131b232b360811b600a86061a8153600a850494508461120b57509392505050565b60008061124983611027565b6001600160a01b0316141592915050565b6112648383611464565b611271600084848461128d565b61068b5760405162461bcd60e51b81526004016105ea90611a3c565b60006001600160a01b0384163b1561138357604051630a85bd0160e11b81526001600160a01b0385169063150b7a02906112d1903390899088908890600401611a8e565b6020604051808303816000875af192505050801561130c575060408051601f3d908101601f1916820190925261130991810190611acb565b60015b611369573d80801561133a576040519150601f19603f3d011682016040523d82523d6000602084013e61133f565b606091505b5080516000036113615760405162461bcd60e51b81526004016105ea90611a3c565b805181602001fd5b6001600160e01b031916630a85bd0160e11b149050610ecd565b506001949350505050565b60008072184f03e93ff9f4daa797ed6e38ed64bf6a1f0160401b83106113cd5772184f03e93ff9f4daa797ed6e38ed64bf6a1f0160401b830492506040015b6904ee2d6d415b85acef8160201b83106113f7576904ee2d6d415b85acef8160201b830492506020015b662386f26fc10000831061141557662386f26fc10000830492506010015b6305f5e100831061142d576305f5e100830492506008015b612710831061144157612710830492506004015b60648310611453576064830492506002015b600a83106104b75760010192915050565b6001600160a01b0382166114ba5760405162461bcd60e51b815260206004820181905260248201527f4552433732313a206d696e7420746f20746865207a65726f206164647265737360448201526064016105ea565b6114c38161123d565b156114e05760405162461bcd60e51b81526004016105ea90611ae8565b6114e98161123d565b156115065760405162461bcd60e51b81526004016105ea90611ae8565b6001600160a01b038216600081815260036020908152604080832080546001019055848352600290915280822080546001600160a01b031916841790555183929190600080516020611b3f833981519152908290a45050565b6001600160e01b031981168114610d8157600080fd5b60006020828403121561158757600080fd5b8135610c658161155f565b60005b838110156115ad578181015183820152602001611595565b50506000910152565b600081518084526115ce816020860160208601611592565b601f01601f19169290920160200192915050565b602081526000610c6560208301846115b6565b60006020828403121561160757600080fd5b5035919050565b6001600160a01b0391909116815260200190565b80356001600160a01b038116811461163957600080fd5b919050565b6000806040838503121561165157600080fd5b61165a83611622565b946020939093013593505050565b6000806040838503121561167b57600080fd5b50508035926020909101359150565b60008060006060848603121561169f57600080fd5b6116a884611622565b92506116b660208501611622565b9150604084013590509250925092565b6000602082840312156116d857600080fd5b610c6582611622565b8015158114610d8157600080fd5b6000806040838503121561170257600080fd5b61170b83611622565b9150602083013561171b816116e1565b809150509250929050565b634e487b7160e01b600052604160045260246000fd5b6000806000806080858703121561175257600080fd5b61175b85611622565b935061176960208601611622565b92506040850135915060608501356001600160401b038082111561178c57600080fd5b818701915087601f8301126117a057600080fd5b8135818111156117b2576117b2611726565b604051601f8201601f19908116603f011681019083821181831017156117da576117da611726565b816040528281528a60208487010111156117f357600080fd5b82602086016020830137600060208483010152809550505050505092959194509250565b6000806040838503121561182a57600080fd5b61183383611622565b915061184160208401611622565b90509250929050565b600181811c9082168061185e57607f821691505b60208210810361187e57634e487b7160e01b600052602260045260246000fd5b50919050565b6020808252602d908201527f4552433732313a2063616c6c6572206973206e6f7420746f6b656e206f776e6560408201526c1c881bdc88185c1c1c9bdd9959609a1b606082015260800190565b6000602082840312156118e357600080fd5b5051919050565b6000602082840312156118fc57600080fd5b8151610c65816116e1565b602080825260189082015277115490cdcc8c4e881a5b9d985b1a59081d1bdad95b88125160421b604082015260600190565b60208082526029908201527f4361706974616c52657061796d656e7450726f70657274793a20746f6b656e73604082015268081cdbdb19081bdd5d60ba1b606082015260800190565b634e487b7160e01b600052601160045260246000fd5b80820281158282048414176104b7576104b7611982565b6000600182016119c1576119c1611982565b5060010190565b600083516119da818460208801611592565b8351908301906119ee818360208801611592565b01949350505050565b60208082526025908201527f4552433732313a207472616e736665722066726f6d20696e636f72726563742060408201526437bbb732b960d91b606082015260800190565b60208082526032908201527f4552433732313a207472616e7366657220746f206e6f6e20455243373231526560408201527131b2b4bb32b91034b6b83632b6b2b73a32b960711b606082015260800190565b6001600160a01b0385811682528416602082015260408101839052608060608201819052600090611ac1908301846115b6565b9695505050505050565b600060208284031215611add57600080fd5b8151610c658161155f565b6020808252601c908201527b115490cdcc8c4e881d1bdad95b88185b1c9958591e481b5a5b9d195960221b60408201526060019056fe4361706974616c52657061796d656e7450726f70657274793a20616c72656164ddf252ad1be2c89b69c2b068fc378daa952ba7f163c4a11628f55a4df523b3efa2646970667358221220c9bdbaa4add8371a53365db242d9a4a3006d54fbd474a21c531411407c75033264736f6c63430008110033a2646970667358221220324bc9130cce64fd2b5145a497a287c4711ae92d9ec41c7ba4aa8b17181d9e4664736f6c63430008110033",
  "linkReferences": {},
  "deployedLinkReferences": {}
}